{
  "_format": "hh-sol-artifact-1",
  "contractName": "Fanvest",
  "sourceName": "contracts/Fanvest.sol",
  "abi": [
    {
      "inputs": [],
      "stateMutability": "nonpayable",
      "type": "constructor"
    },
    {
      "anonymous": false,
      "inputs": [
        {
          "indexed": true,
          "internalType": "address",
          "name": "account",
          "type": "address"
        },
        {
          "indexed": true,
          "internalType": "address",
          "name": "operator",
          "type": "address"
        },
        {
          "indexed": false,
          "internalType": "bool",
          "name": "approved",
          "type": "bool"
        }
      ],
      "name": "ApprovalForAll",
      "type": "event"
    },
    {
      "anonymous": false,
      "inputs": [
        {
          "indexed": true,
          "internalType": "address",
          "name": "previousOwner",
          "type": "address"
        },
        {
          "indexed": true,
          "internalType": "address",
          "name": "newOwner",
          "type": "address"
        }
      ],
      "name": "OwnershipTransferred",
      "type": "event"
    },
    {
      "anonymous": false,
      "inputs": [
        {
          "indexed": true,
          "internalType": "address",
          "name": "operator",
          "type": "address"
        },
        {
          "indexed": true,
          "internalType": "address",
          "name": "from",
          "type": "address"
        },
        {
          "indexed": true,
          "internalType": "address",
          "name": "to",
          "type": "address"
        },
        {
          "indexed": false,
          "internalType": "uint256[]",
          "name": "ids",
          "type": "uint256[]"
        },
        {
          "indexed": false,
          "internalType": "uint256[]",
          "name": "values",
          "type": "uint256[]"
        }
      ],
      "name": "TransferBatch",
      "type": "event"
    },
    {
      "anonymous": false,
      "inputs": [
        {
          "indexed": true,
          "internalType": "address",
          "name": "operator",
          "type": "address"
        },
        {
          "indexed": true,
          "internalType": "address",
          "name": "from",
          "type": "address"
        },
        {
          "indexed": true,
          "internalType": "address",
          "name": "to",
          "type": "address"
        },
        {
          "indexed": false,
          "internalType": "uint256",
          "name": "id",
          "type": "uint256"
        },
        {
          "indexed": false,
          "internalType": "uint256",
          "name": "value",
          "type": "uint256"
        }
      ],
      "name": "TransferSingle",
      "type": "event"
    },
    {
      "anonymous": false,
      "inputs": [
        {
          "indexed": false,
          "internalType": "string",
          "name": "value",
          "type": "string"
        },
        {
          "indexed": true,
          "internalType": "uint256",
          "name": "id",
          "type": "uint256"
        }
      ],
      "name": "URI",
      "type": "event"
    },
    {
      "inputs": [
        {
          "internalType": "address",
          "name": "account",
          "type": "address"
        },
        {
          "internalType": "uint256",
          "name": "id",
          "type": "uint256"
        }
      ],
      "name": "balanceOf",
      "outputs": [
        {
          "internalType": "uint256",
          "name": "",
          "type": "uint256"
        }
      ],
      "stateMutability": "view",
      "type": "function"
    },
    {
      "inputs": [
        {
          "internalType": "address[]",
          "name": "accounts",
          "type": "address[]"
        },
        {
          "internalType": "uint256[]",
          "name": "ids",
          "type": "uint256[]"
        }
      ],
      "name": "balanceOfBatch",
      "outputs": [
        {
          "internalType": "uint256[]",
          "name": "",
          "type": "uint256[]"
        }
      ],
      "stateMutability": "view",
      "type": "function"
    },
    {
      "inputs": [],
      "name": "cutDenominator",
      "outputs": [
        {
          "internalType": "uint256",
          "name": "",
          "type": "uint256"
        }
      ],
      "stateMutability": "view",
      "type": "function"
    },
    {
      "inputs": [],
      "name": "cutNumerator",
      "outputs": [
        {
          "internalType": "uint256",
          "name": "",
          "type": "uint256"
        }
      ],
      "stateMutability": "view",
      "type": "function"
    },
    {
      "inputs": [
        {
          "internalType": "uint256",
          "name": "_id",
          "type": "uint256"
        }
      ],
      "name": "getSupplies",
      "outputs": [
        {
          "components": [
            {
              "internalType": "string",
              "name": "name",
              "type": "string"
            },
            {
              "internalType": "string",
              "name": "data",
              "type": "string"
            },
            {
              "internalType": "uint256",
              "name": "rate",
              "type": "uint256"
            },
            {
              "internalType": "address",
              "name": "creator",
              "type": "address"
            },
            {
              "internalType": "uint256",
              "name": "TokenFractID",
              "type": "uint256"
            },
            {
              "internalType": "uint256",
              "name": "totalSupply",
              "type": "uint256"
            }
          ],
          "internalType": "struct Fanvest.TokenFract",
          "name": "",
          "type": "tuple"
        }
      ],
      "stateMutability": "view",
      "type": "function"
    },
    {
      "inputs": [],
      "name": "getTokenMinters",
      "outputs": [
        {
          "internalType": "address[]",
          "name": "",
          "type": "address[]"
        }
      ],
      "stateMutability": "view",
      "type": "function"
    },
    {
      "inputs": [],
      "name": "getValue",
      "outputs": [
        {
          "internalType": "uint256",
          "name": "",
          "type": "uint256"
        }
      ],
      "stateMutability": "view",
      "type": "function"
    },
    {
      "inputs": [
        {
          "internalType": "address",
          "name": "account",
          "type": "address"
        },
        {
          "internalType": "address",
          "name": "operator",
          "type": "address"
        }
      ],
      "name": "isApprovedForAll",
      "outputs": [
        {
          "internalType": "bool",
          "name": "",
          "type": "bool"
        }
      ],
      "stateMutability": "view",
      "type": "function"
    },
    {
      "inputs": [
        {
          "internalType": "uint256",
          "name": "_id",
          "type": "uint256"
        },
        {
          "internalType": "uint256",
          "name": "_amount",
          "type": "uint256"
        }
      ],
      "name": "mint",
      "outputs": [],
      "stateMutability": "payable",
      "type": "function"
    },
    {
      "inputs": [
        {
          "internalType": "string",
          "name": "_name",
          "type": "string"
        },
        {
          "internalType": "string",
          "name": "_data",
          "type": "string"
        },
        {
          "internalType": "uint256",
          "name": "_rate",
          "type": "uint256"
        },
        {
          "internalType": "uint256",
          "name": "_totalSupply",
          "type": "uint256"
        }
      ],
      "name": "mintSupply",
      "outputs": [],
      "stateMutability": "nonpayable",
      "type": "function"
    },
    {
      "inputs": [],
      "name": "owner",
      "outputs": [
        {
          "internalType": "address",
          "name": "",
          "type": "address"
        }
      ],
      "stateMutability": "view",
      "type": "function"
    },
    {
      "inputs": [],
      "name": "renounceOwnership",
      "outputs": [],
      "stateMutability": "nonpayable",
      "type": "function"
    },
    {
      "inputs": [
        {
          "internalType": "address",
          "name": "",
          "type": "address"
        }
      ],
      "name": "resultMapping",
      "outputs": [
        {
          "internalType": "string",
          "name": "name",
          "type": "string"
        },
        {
          "internalType": "string",
          "name": "data",
          "type": "string"
        },
        {
          "internalType": "uint256",
          "name": "rate",
          "type": "uint256"
        },
        {
          "internalType": "address",
          "name": "creator",
          "type": "address"
        },
        {
          "internalType": "uint256",
          "name": "TokenFractID",
          "type": "uint256"
        },
        {
          "internalType": "uint256",
          "name": "totalSupply",
          "type": "uint256"
        }
      ],
      "stateMutability": "view",
      "type": "function"
    },
    {
      "inputs": [
        {
          "internalType": "address",
          "name": "from",
          "type": "address"
        },
        {
          "internalType": "address",
          "name": "to",
          "type": "address"
        },
        {
          "internalType": "uint256[]",
          "name": "ids",
          "type": "uint256[]"
        },
        {
          "internalType": "uint256[]",
          "name": "amounts",
          "type": "uint256[]"
        },
        {
          "internalType": "bytes",
          "name": "data",
          "type": "bytes"
        }
      ],
      "name": "safeBatchTransferFrom",
      "outputs": [],
      "stateMutability": "nonpayable",
      "type": "function"
    },
    {
      "inputs": [
        {
          "internalType": "address",
          "name": "from",
          "type": "address"
        },
        {
          "internalType": "address",
          "name": "to",
          "type": "address"
        },
        {
          "internalType": "uint256",
          "name": "id",
          "type": "uint256"
        },
        {
          "internalType": "uint256",
          "name": "amount",
          "type": "uint256"
        },
        {
          "internalType": "bytes",
          "name": "data",
          "type": "bytes"
        }
      ],
      "name": "safeTransferFrom",
      "outputs": [],
      "stateMutability": "nonpayable",
      "type": "function"
    },
    {
      "inputs": [
        {
          "internalType": "address",
          "name": "operator",
          "type": "address"
        },
        {
          "internalType": "bool",
          "name": "approved",
          "type": "bool"
        }
      ],
      "name": "setApprovalForAll",
      "outputs": [],
      "stateMutability": "nonpayable",
      "type": "function"
    },
    {
      "inputs": [
        {
          "internalType": "string",
          "name": "newuri",
          "type": "string"
        }
      ],
      "name": "setURI",
      "outputs": [],
      "stateMutability": "nonpayable",
      "type": "function"
    },
    {
      "inputs": [
        {
          "internalType": "bytes4",
          "name": "interfaceId",
          "type": "bytes4"
        }
      ],
      "name": "supportsInterface",
      "outputs": [
        {
          "internalType": "bool",
          "name": "",
          "type": "bool"
        }
      ],
      "stateMutability": "view",
      "type": "function"
    },
    {
      "inputs": [
        {
          "internalType": "address",
          "name": "",
          "type": "address"
        }
      ],
      "name": "tokenBuyers",
      "outputs": [
        {
          "internalType": "address",
          "name": "buyer",
          "type": "address"
        },
        {
          "internalType": "uint256",
          "name": "id",
          "type": "uint256"
        },
        {
          "internalType": "uint256",
          "name": "amount",
          "type": "uint256"
        },
        {
          "internalType": "uint256",
          "name": "price",
          "type": "uint256"
        }
      ],
      "stateMutability": "view",
      "type": "function"
    },
    {
      "inputs": [
        {
          "internalType": "uint256",
          "name": "",
          "type": "uint256"
        }
      ],
      "name": "tokenBuyersDataArray",
      "outputs": [
        {
          "internalType": "address",
          "name": "buyer",
          "type": "address"
        },
        {
          "internalType": "uint256",
          "name": "id",
          "type": "uint256"
        },
        {
          "internalType": "uint256",
          "name": "amount",
          "type": "uint256"
        },
        {
          "internalType": "uint256",
          "name": "price",
          "type": "uint256"
        }
      ],
      "stateMutability": "view",
      "type": "function"
    },
    {
      "inputs": [
        {
          "internalType": "uint256",
          "name": "",
          "type": "uint256"
        }
      ],
      "name": "tokenMinters",
      "outputs": [
        {
          "internalType": "address",
          "name": "",
          "type": "address"
        }
      ],
      "stateMutability": "view",
      "type": "function"
    },
    {
      "inputs": [
        {
          "internalType": "address",
          "name": "newOwner",
          "type": "address"
        }
      ],
      "name": "transferOwnership",
      "outputs": [],
      "stateMutability": "nonpayable",
      "type": "function"
    },
    {
      "inputs": [
        {
          "internalType": "uint256",
          "name": "numerator",
          "type": "uint256"
        },
        {
          "internalType": "uint256",
          "name": "denominator",
          "type": "uint256"
        }
      ],
      "name": "updateCut",
      "outputs": [],
      "stateMutability": "nonpayable",
      "type": "function"
    },
    {
      "inputs": [
        {
          "internalType": "uint256",
          "name": "",
          "type": "uint256"
        }
      ],
      "name": "uri",
      "outputs": [
        {
          "internalType": "string",
          "name": "",
          "type": "string"
        }
      ],
      "stateMutability": "view",
      "type": "function"
    },
    {
      "inputs": [],
      "name": "withdraw",
      "outputs": [],
      "stateMutability": "payable",
      "type": "function"
    }
  ],
  "bytecode": "0x6080604052600160075560646008553480156200001b57600080fd5b5060405180606001604052806022815260200162005267602291396200004781620000cb60201b60201c565b50620000686200005c620000e760201b60201c565b620000ef60201b60201c565b600060068190555073dda99bd35363c268b41ac741d9b7e1a95bcf9bf1600960006101000a81548173ffffffffffffffffffffffffffffffffffffffff021916908373ffffffffffffffffffffffffffffffffffffffff160217905550620002ca565b8060029080519060200190620000e3929190620001b5565b5050565b600033905090565b6000600360009054906101000a900473ffffffffffffffffffffffffffffffffffffffff16905081600360006101000a81548173ffffffffffffffffffffffffffffffffffffffff021916908373ffffffffffffffffffffffffffffffffffffffff1602179055508173ffffffffffffffffffffffffffffffffffffffff168173ffffffffffffffffffffffffffffffffffffffff167f8be0079c531659141344cd1fd0a4f28419497f9722a3daafe3b4186f6b6457e060405160405180910390a35050565b828054620001c39062000265565b90600052602060002090601f016020900481019282620001e7576000855562000233565b82601f106200020257805160ff191683800117855562000233565b8280016001018555821562000233579182015b828111156200023257825182559160200191906001019062000215565b5b50905062000242919062000246565b5090565b5b808211156200026157600081600090555060010162000247565b5090565b600060028204905060018216806200027e57607f821691505b602082108114156200029557620002946200029b565b5b50919050565b7f4e487b7100000000000000000000000000000000000000000000000000000000600052602260045260246000fd5b614f8d80620002da6000396000f3fe6080604052600436106101655760003560e01c80634e1273f4116100d1578063abf0f5731161008a578063d5ffe20911610064578063d5ffe2091461053e578063e985e9c51461057b578063f242432a146105b8578063f2fde38b146105e157610165565b8063abf0f573146104a8578063d01d7b1e146104d3578063d10a45351461051357610165565b80634e1273f4146103ae578063715018a6146103eb5780637420cc6514610402578063760669fd1461042b5780638da5cb5b14610454578063a22cb4651461047f57610165565b806313fb319e1161012357806313fb319e146102b25780631b2ef1ca146102f2578063209652551461030e5780632eb2c2d6146103395780633ccfd60b1461036257806344cf9b461461036c57610165565b8062fdd58e1461016a57806301ffc9a7146101a757806302fe5305146101e4578063089eb32d1461020d5780630e89341c146102385780631096324314610275575b600080fd5b34801561017657600080fd5b50610191600480360381019061018c9190613704565b61060a565b60405161019e9190614380565b60405180910390f35b3480156101b357600080fd5b506101ce60048036038101906101c991906137ac565b6106d3565b6040516101db9190614002565b60405180910390f35b3480156101f057600080fd5b5061020b600480360381019061020691906137fe565b6107b5565b005b34801561021957600080fd5b506102226107c1565b60405161022f9190614380565b60405180910390f35b34801561024457600080fd5b5061025f600480360381019061025a91906138d2565b6107c7565b60405161026c919061401d565b60405180910390f35b34801561028157600080fd5b5061029c600480360381019061029791906138d2565b61085b565b6040516102a99190613e65565b60405180910390f35b3480156102be57600080fd5b506102d960048036038101906102d49190613515565b61089a565b6040516102e99493929190613f42565b60405180910390f35b61030c600480360381019061030791906138fb565b6108ea565b005b34801561031a57600080fd5b506103236110cb565b6040516103309190614380565b60405180910390f35b34801561034557600080fd5b50610360600480360381019061035b919061357a565b6110d5565b005b61036a611176565b005b34801561037857600080fd5b50610393600480360381019061038e9190613515565b611285565b6040516103a59695949392919061406f565b60405180910390f35b3480156103ba57600080fd5b506103d560048036038101906103d09190613740565b6113f1565b6040516103e29190613fa9565b60405180910390f35b3480156103f757600080fd5b506104006115a2565b005b34801561040e57600080fd5b50610429600480360381019061042491906138fb565b61162a565b005b34801561043757600080fd5b50610452600480360381019061044d919061383f565b611696565b005b34801561046057600080fd5b50610469611a4d565b6040516104769190613e65565b60405180910390f35b34801561048b57600080fd5b506104a660048036038101906104a191906136c8565b611a77565b005b3480156104b457600080fd5b506104bd611bf8565b6040516104ca9190614380565b60405180910390f35b3480156104df57600080fd5b506104fa60048036038101906104f591906138d2565b611bfe565b60405161050a9493929190613f42565b60405180910390f35b34801561051f57600080fd5b50610528611c5e565b6040516105359190613f87565b60405180910390f35b34801561054a57600080fd5b50610565600480360381019061056091906138d2565b611cec565b604051610572919061435e565b60405180910390f35b34801561058757600080fd5b506105a2600480360381019061059d919061353e565b611ef2565b6040516105af9190614002565b60405180910390f35b3480156105c457600080fd5b506105df60048036038101906105da9190613639565b611f86565b005b3480156105ed57600080fd5b5061060860048036038101906106039190613515565b612027565b005b60008073ffffffffffffffffffffffffffffffffffffffff168373ffffffffffffffffffffffffffffffffffffffff16141561067b576040517f08c379a00000000000000000000000000000000000000000000000000000000081526004016106729061413e565b60405180910390fd5b60008083815260200190815260200160002060008473ffffffffffffffffffffffffffffffffffffffff1673ffffffffffffffffffffffffffffffffffffffff16815260200190815260200160002054905092915050565b60007fd9b67a26000000000000000000000000000000000000000000000000000000007bffffffffffffffffffffffffffffffffffffffffffffffffffffffff1916827bffffffffffffffffffffffffffffffffffffffffffffffffffffffff1916148061079e57507f0e89341c000000000000000000000000000000000000000000000000000000007bffffffffffffffffffffffffffffffffffffffffffffffffffffffff1916827bffffffffffffffffffffffffffffffffffffffffffffffffffffffff1916145b806107ae57506107ad8261211f565b5b9050919050565b6107be81612189565b50565b60085481565b6060600280546107d6906147c1565b80601f0160208091040260200160405190810160405280929190818152602001828054610802906147c1565b801561084f5780601f106108245761010080835404028352916020019161084f565b820191906000526020600020905b81548152906001019060200180831161083257829003601f168201915b50505050509050919050565b600b818154811061086b57600080fd5b906000526020600020016000915054906101000a900473ffffffffffffffffffffffffffffffffffffffff1681565b600c6020528060005260406000206000915090508060000160009054906101000a900473ffffffffffffffffffffffffffffffffffffffff16908060010154908060020154908060030154905084565b60006001836108f991906146ad565b90506109c68260048381548110610939577f4e487b7100000000000000000000000000000000000000000000000000000000600052603260045260246000fd5b906000526020600020906006020160020154670de0b6b3a7640000806004868154811061098f577f4e487b7100000000000000000000000000000000000000000000000000000000600052603260045260246000fd5b9060005260206000209060060201600201546109ab9190614653565b866109b69190614653565b6109c09190614622565b346121a3565b610a4e670de0b6b3a7640000346109dd9190614653565b60048381548110610a17577f4e487b7100000000000000000000000000000000000000000000000000000000600052603260045260246000fd5b906000526020600020906006020160030160009054906101000a900473ffffffffffffffffffffffffffffffffffffffff16612245565b66038d7ea4c68000341015610a98576040517f08c379a0000000000000000000000000000000000000000000000000000000008152600401610a8f9061411e565b60405180910390fd5b600480549050831115610ae0576040517f08c379a0000000000000000000000000000000000000000000000000000000008152600401610ad7906141fe565b60405180910390fd5b60008311610b23576040517f08c379a0000000000000000000000000000000000000000000000000000000008152600401610b1a9061427e565b60405180910390fd5b60048181548110610b5d577f4e487b7100000000000000000000000000000000000000000000000000000000600052603260045260246000fd5b9060005260206000209060060201600501548260058381548110610baa577f4e487b7100000000000000000000000000000000000000000000000000000000600052603260045260246000fd5b9060005260206000200154610bbf91906145cc565b1115610c00576040517f08c379a0000000000000000000000000000000000000000000000000000000008152600401610bf79061429e565b60405180910390fd5b670de0b6b3a76400008060048381548110610c44577f4e487b7100000000000000000000000000000000000000000000000000000000600052603260045260246000fd5b906000526020600020906006020160020154610c609190614653565b83610c6b9190614653565b610c759190614622565b670de0b6b3a764000034610c899190614622565b1015610cca576040517f08c379a0000000000000000000000000000000000000000000000000000000008152600401610cc19061421e565b60405180910390fd5b610d0b3384846040518060400160405280600581526020017f68656c6c6f0000000000000000000000000000000000000000000000000000008152506122e1565b610d496040518060400160405280600781526020017f6d696e7465642100000000000000000000000000000000000000000000000000815250612477565b600060085460075434610d5c9190614653565b610d669190614622565b9050610d70611a4d565b73ffffffffffffffffffffffffffffffffffffffff166108fc829081150290604051600060405180830381858888f19350505050158015610db5573d6000803e3d6000fd5b50600060048381548110610df2577f4e487b7100000000000000000000000000000000000000000000000000000000600052603260045260246000fd5b906000526020600020906006020160030160009054906101000a900473ffffffffffffffffffffffffffffffffffffffff1673ffffffffffffffffffffffffffffffffffffffff166108fc349081150290604051600060405180830381858888f19350505050905080610e9a576040517f08c379a0000000000000000000000000000000000000000000000000000000008152600401610e919061417e565b60405180910390fd5b8360058481548110610ed5577f4e487b7100000000000000000000000000000000000000000000000000000000600052603260045260246000fd5b906000526020600020016000828254610eee91906145cc565b9250508190555060405180608001604052803373ffffffffffffffffffffffffffffffffffffffff16815260200186815260200185815260200134815250600c60003373ffffffffffffffffffffffffffffffffffffffff1673ffffffffffffffffffffffffffffffffffffffff16815260200190815260200160002060008201518160000160006101000a81548173ffffffffffffffffffffffffffffffffffffffff021916908373ffffffffffffffffffffffffffffffffffffffff160217905550602082015181600101556040820151816002015560608201518160030155905050600d600c60003373ffffffffffffffffffffffffffffffffffffffff1673ffffffffffffffffffffffffffffffffffffffff16815260200190815260200160002090806001815401808255809150506001900390600052602060002090600402016000909190919091506000820160009054906101000a900473ffffffffffffffffffffffffffffffffffffffff168160000160006101000a81548173ffffffffffffffffffffffffffffffffffffffff021916908373ffffffffffffffffffffffffffffffffffffffff16021790555060018201548160010155600282015481600201556003820154816003015550505050505050565b6000600654905090565b6110dd612510565b73ffffffffffffffffffffffffffffffffffffffff168573ffffffffffffffffffffffffffffffffffffffff16148061112357506111228561111d612510565b611ef2565b5b611162576040517f08c379a0000000000000000000000000000000000000000000000000000000008152600401611159906141de565b60405180910390fd5b61116f8585858585612518565b5050505050565b61117e612510565b73ffffffffffffffffffffffffffffffffffffffff1661119c611a4d565b73ffffffffffffffffffffffffffffffffffffffff16146111f2576040517f08c379a00000000000000000000000000000000000000000000000000000000081526004016111e99061425e565b60405180910390fd5b60004711611235576040517f08c379a000000000000000000000000000000000000000000000000000000000815260040161122c906142be565b60405180910390fd5b61123d611a4d565b73ffffffffffffffffffffffffffffffffffffffff166108fc479081150290604051600060405180830381858888f19350505050158015611282573d6000803e3d6000fd5b50565b600a6020528060005260406000206000915090508060000180546112a8906147c1565b80601f01602080910402602001604051908101604052809291908181526020018280546112d4906147c1565b80156113215780601f106112f657610100808354040283529160200191611321565b820191906000526020600020905b81548152906001019060200180831161130457829003601f168201915b505050505090806001018054611336906147c1565b80601f0160208091040260200160405190810160405280929190818152602001828054611362906147c1565b80156113af5780601f10611384576101008083540402835291602001916113af565b820191906000526020600020905b81548152906001019060200180831161139257829003601f168201915b5050505050908060020154908060030160009054906101000a900473ffffffffffffffffffffffffffffffffffffffff16908060040154908060050154905086565b60608151835114611437576040517f08c379a000000000000000000000000000000000000000000000000000000000815260040161142e906142fe565b60405180910390fd5b6000835167ffffffffffffffff81111561147a577f4e487b7100000000000000000000000000000000000000000000000000000000600052604160045260246000fd5b6040519080825280602002602001820160405280156114a85781602001602082028036833780820191505090505b50905060005b8451811015611597576115418582815181106114f3577f4e487b7100000000000000000000000000000000000000000000000000000000600052603260045260246000fd5b6020026020010151858381518110611534577f4e487b7100000000000000000000000000000000000000000000000000000000600052603260045260246000fd5b602002602001015161060a565b82828151811061157a577f4e487b7100000000000000000000000000000000000000000000000000000000600052603260045260246000fd5b6020026020010181815250508061159090614824565b90506114ae565b508091505092915050565b6115aa612510565b73ffffffffffffffffffffffffffffffffffffffff166115c8611a4d565b73ffffffffffffffffffffffffffffffffffffffff161461161e576040517f08c379a00000000000000000000000000000000000000000000000000000000081526004016116159061425e565b60405180910390fd5b6116286000612878565b565b600960009054906101000a900473ffffffffffffffffffffffffffffffffffffffff1673ffffffffffffffffffffffffffffffffffffffff163373ffffffffffffffffffffffffffffffffffffffff161461168457600080fd5b81600781905550806008819055505050565b61169e612510565b73ffffffffffffffffffffffffffffffffffffffff166116bc611a4d565b73ffffffffffffffffffffffffffffffffffffffff1614611712576040517f08c379a00000000000000000000000000000000000000000000000000000000081526004016117099061425e565b60405180910390fd5b6040518060c001604052808581526020018481526020018381526020013373ffffffffffffffffffffffffffffffffffffffff16815260200160066000815461175a90614824565b919050819055815260200182815250600a60003373ffffffffffffffffffffffffffffffffffffffff1673ffffffffffffffffffffffffffffffffffffffff16815260200190815260200160002060008201518160000190805190602001906117c4929190613134565b5060208201518160010190805190602001906117e1929190613134565b506040820151816002015560608201518160030160006101000a81548173ffffffffffffffffffffffffffffffffffffffff021916908373ffffffffffffffffffffffffffffffffffffffff1602179055506080820151816004015560a082015181600501559050506004600a60003373ffffffffffffffffffffffffffffffffffffffff1673ffffffffffffffffffffffffffffffffffffffff168152602001908152602001600020908060018154018082558091505060019003906000526020600020906006020160009091909190915060008201816000019080546118c8906147c1565b6118d39291906131ba565b5060018201816001019080546118e8906147c1565b6118f39291906131ba565b50600282015481600201556003820160009054906101000a900473ffffffffffffffffffffffffffffffffffffffff168160030160006101000a81548173ffffffffffffffffffffffffffffffffffffffff021916908373ffffffffffffffffffffffffffffffffffffffff16021790555060048201548160040155600582015481600501555050600b339080600181540180825580915050600190039060005260206000200160009091909190916101000a81548173ffffffffffffffffffffffffffffffffffffffff021916908373ffffffffffffffffffffffffffffffffffffffff160217905550600560009080600181540180825580915050600190039060005260206000200160009091909190915055611a476040518060400160405280600b81526020017f6d73672e73656e6465723a0000000000000000000000000000000000000000008152503361293e565b50505050565b6000600360009054906101000a900473ffffffffffffffffffffffffffffffffffffffff16905090565b8173ffffffffffffffffffffffffffffffffffffffff16611a96612510565b73ffffffffffffffffffffffffffffffffffffffff161415611aed576040517f08c379a0000000000000000000000000000000000000000000000000000000008152600401611ae4906142de565b60405180910390fd5b8060016000611afa612510565b73ffffffffffffffffffffffffffffffffffffffff1673ffffffffffffffffffffffffffffffffffffffff16815260200190815260200160002060008473ffffffffffffffffffffffffffffffffffffffff1673ffffffffffffffffffffffffffffffffffffffff16815260200190815260200160002060006101000a81548160ff0219169083151502179055508173ffffffffffffffffffffffffffffffffffffffff16611ba7612510565b73ffffffffffffffffffffffffffffffffffffffff167f17307eab39ab6107e8899845ad3d59bd9653f200f220920489ca2b5937696c3183604051611bec9190614002565b60405180910390a35050565b60075481565b600d8181548110611c0e57600080fd5b90600052602060002090600402016000915090508060000160009054906101000a900473ffffffffffffffffffffffffffffffffffffffff16908060010154908060020154908060030154905084565b6060600b805480602002602001604051908101604052809291908181526020018280548015611ce257602002820191906000526020600020905b8160009054906101000a900473ffffffffffffffffffffffffffffffffffffffff1673ffffffffffffffffffffffffffffffffffffffff1681526020019060010190808311611c98575b5050505050905090565b611cf4613247565b600482611d0090614797565b92508281548110611d3a577f4e487b7100000000000000000000000000000000000000000000000000000000600052603260045260246000fd5b90600052602060002090600602016040518060c0016040529081600082018054611d63906147c1565b80601f0160208091040260200160405190810160405280929190818152602001828054611d8f906147c1565b8015611ddc5780601f10611db157610100808354040283529160200191611ddc565b820191906000526020600020905b815481529060010190602001808311611dbf57829003601f168201915b50505050508152602001600182018054611df5906147c1565b80601f0160208091040260200160405190810160405280929190818152602001828054611e21906147c1565b8015611e6e5780601f10611e4357610100808354040283529160200191611e6e565b820191906000526020600020905b815481529060010190602001808311611e5157829003601f168201915b50505050508152602001600282015481526020016003820160009054906101000a900473ffffffffffffffffffffffffffffffffffffffff1673ffffffffffffffffffffffffffffffffffffffff1673ffffffffffffffffffffffffffffffffffffffff168152602001600482015481526020016005820154815250509050919050565b6000600160008473ffffffffffffffffffffffffffffffffffffffff1673ffffffffffffffffffffffffffffffffffffffff16815260200190815260200160002060008373ffffffffffffffffffffffffffffffffffffffff1673ffffffffffffffffffffffffffffffffffffffff16815260200190815260200160002060009054906101000a900460ff16905092915050565b611f8e612510565b73ffffffffffffffffffffffffffffffffffffffff168573ffffffffffffffffffffffffffffffffffffffff161480611fd45750611fd385611fce612510565b611ef2565b5b612013576040517f08c379a000000000000000000000000000000000000000000000000000000000815260040161200a9061419e565b60405180910390fd5b61202085858585856129da565b5050505050565b61202f612510565b73ffffffffffffffffffffffffffffffffffffffff1661204d611a4d565b73ffffffffffffffffffffffffffffffffffffffff16146120a3576040517f08c379a000000000000000000000000000000000000000000000000000000000815260040161209a9061425e565b60405180910390fd5b600073ffffffffffffffffffffffffffffffffffffffff168173ffffffffffffffffffffffffffffffffffffffff161415612113576040517f08c379a000000000000000000000000000000000000000000000000000000000815260040161210a9061415e565b60405180910390fd5b61211c81612878565b50565b60007f01ffc9a7000000000000000000000000000000000000000000000000000000007bffffffffffffffffffffffffffffffffffffffffffffffffffffffff1916827bffffffffffffffffffffffffffffffffffffffffffffffffffffffff1916149050919050565b806002908051906020019061219f929190613134565b5050565b61223f848484846040516024016121bd94939291906143ed565b6040516020818303038152906040527f5ca0ad3e000000000000000000000000000000000000000000000000000000007bffffffffffffffffffffffffffffffffffffffffffffffffffffffff19166020820180517bffffffffffffffffffffffffffffffffffffffffffffffffffffffff8381831617835250505050612c5c565b50505050565b6122dd828260405160240161225b92919061439b565b6040516020818303038152906040527f58eb860c000000000000000000000000000000000000000000000000000000007bffffffffffffffffffffffffffffffffffffffffffffffffffffffff19166020820180517bffffffffffffffffffffffffffffffffffffffffffffffffffffffff8381831617835250505050612c5c565b5050565b600073ffffffffffffffffffffffffffffffffffffffff168473ffffffffffffffffffffffffffffffffffffffff161415612351576040517f08c379a00000000000000000000000000000000000000000000000000000000081526004016123489061433e565b60405180910390fd5b600061235b612510565b905061237c8160008761236d88612c85565b61237688612c85565b87612d4b565b8260008086815260200190815260200160002060008773ffffffffffffffffffffffffffffffffffffffff1673ffffffffffffffffffffffffffffffffffffffff16815260200190815260200160002060008282546123db91906145cc565b925050819055508473ffffffffffffffffffffffffffffffffffffffff16600073ffffffffffffffffffffffffffffffffffffffff168273ffffffffffffffffffffffffffffffffffffffff167fc3d58168c5ae7397731d063d5bbf3d657854427343f4c083240f7aacaa2d0f6287876040516124599291906143c4565b60405180910390a461247081600087878787612d53565b5050505050565b61250d8160405160240161248b919061401d565b6040516020818303038152906040527f41304fac000000000000000000000000000000000000000000000000000000007bffffffffffffffffffffffffffffffffffffffffffffffffffffffff19166020820180517bffffffffffffffffffffffffffffffffffffffffffffffffffffffff8381831617835250505050612c5c565b50565b600033905090565b815183511461255c576040517f08c379a00000000000000000000000000000000000000000000000000000000081526004016125539061431e565b60405180910390fd5b600073ffffffffffffffffffffffffffffffffffffffff168473ffffffffffffffffffffffffffffffffffffffff1614156125cc576040517f08c379a00000000000000000000000000000000000000000000000000000000081526004016125c3906141be565b60405180910390fd5b60006125d6612510565b90506125e6818787878787612d4b565b60005b84518110156127e357600085828151811061262d577f4e487b7100000000000000000000000000000000000000000000000000000000600052603260045260246000fd5b602002602001015190506000858381518110612672577f4e487b7100000000000000000000000000000000000000000000000000000000600052603260045260246000fd5b60200260200101519050600080600084815260200190815260200160002060008b73ffffffffffffffffffffffffffffffffffffffff1673ffffffffffffffffffffffffffffffffffffffff16815260200190815260200160002054905081811015612713576040517f08c379a000000000000000000000000000000000000000000000000000000000815260040161270a9061423e565b60405180910390fd5b81810360008085815260200190815260200160002060008c73ffffffffffffffffffffffffffffffffffffffff1673ffffffffffffffffffffffffffffffffffffffff168152602001908152602001600020819055508160008085815260200190815260200160002060008b73ffffffffffffffffffffffffffffffffffffffff1673ffffffffffffffffffffffffffffffffffffffff16815260200190815260200160002060008282546127c891906145cc565b92505081905550505050806127dc90614824565b90506125e9565b508473ffffffffffffffffffffffffffffffffffffffff168673ffffffffffffffffffffffffffffffffffffffff168273ffffffffffffffffffffffffffffffffffffffff167f4a39dc06d4c0dbc64b70af90fd698a233a518aa5d07e595d983b8c0526c8f7fb878760405161285a929190613fcb565b60405180910390a4612870818787878787612f3a565b505050505050565b6000600360009054906101000a900473ffffffffffffffffffffffffffffffffffffffff16905081600360006101000a81548173ffffffffffffffffffffffffffffffffffffffff021916908373ffffffffffffffffffffffffffffffffffffffff1602179055508173ffffffffffffffffffffffffffffffffffffffff168173ffffffffffffffffffffffffffffffffffffffff167f8be0079c531659141344cd1fd0a4f28419497f9722a3daafe3b4186f6b6457e060405160405180910390a35050565b6129d6828260405160240161295492919061403f565b6040516020818303038152906040527f319af333000000000000000000000000000000000000000000000000000000007bffffffffffffffffffffffffffffffffffffffffffffffffffffffff19166020820180517bffffffffffffffffffffffffffffffffffffffffffffffffffffffff8381831617835250505050612c5c565b5050565b600073ffffffffffffffffffffffffffffffffffffffff168473ffffffffffffffffffffffffffffffffffffffff161415612a4a576040517f08c379a0000000000000000000000000000000000000000000000000000000008152600401612a41906141be565b60405180910390fd5b6000612a54612510565b9050612a74818787612a6588612c85565b612a6e88612c85565b87612d4b565b600080600086815260200190815260200160002060008873ffffffffffffffffffffffffffffffffffffffff1673ffffffffffffffffffffffffffffffffffffffff16815260200190815260200160002054905083811015612b0b576040517f08c379a0000000000000000000000000000000000000000000000000000000008152600401612b029061423e565b60405180910390fd5b83810360008087815260200190815260200160002060008973ffffffffffffffffffffffffffffffffffffffff1673ffffffffffffffffffffffffffffffffffffffff168152602001908152602001600020819055508360008087815260200190815260200160002060008873ffffffffffffffffffffffffffffffffffffffff1673ffffffffffffffffffffffffffffffffffffffff1681526020019081526020016000206000828254612bc091906145cc565b925050819055508573ffffffffffffffffffffffffffffffffffffffff168773ffffffffffffffffffffffffffffffffffffffff168373ffffffffffffffffffffffffffffffffffffffff167fc3d58168c5ae7397731d063d5bbf3d657854427343f4c083240f7aacaa2d0f628888604051612c3d9291906143c4565b60405180910390a4612c53828888888888612d53565b50505050505050565b60008151905060006a636f6e736f6c652e6c6f679050602083016000808483855afa5050505050565b60606000600167ffffffffffffffff811115612cca577f4e487b7100000000000000000000000000000000000000000000000000000000600052604160045260246000fd5b604051908082528060200260200182016040528015612cf85781602001602082028036833780820191505090505b5090508281600081518110612d36577f4e487b7100000000000000000000000000000000000000000000000000000000600052603260045260246000fd5b60200260200101818152505080915050919050565b505050505050565b612d728473ffffffffffffffffffffffffffffffffffffffff16613121565b15612f32578373ffffffffffffffffffffffffffffffffffffffff1663f23a6e6187878686866040518663ffffffff1660e01b8152600401612db8959493929190613ee8565b602060405180830381600087803b158015612dd257600080fd5b505af1925050508015612e0357506040513d601f19601f82011682018060405250810190612e0091906137d5565b60015b612ea957612e0f614929565b806308c379a01415612e6c5750612e24614e65565b80612e2f5750612e6e565b806040517f08c379a0000000000000000000000000000000000000000000000000000000008152600401612e63919061401d565b60405180910390fd5b505b6040517f08c379a0000000000000000000000000000000000000000000000000000000008152600401612ea0906140de565b60405180910390fd5b63f23a6e6160e01b7bffffffffffffffffffffffffffffffffffffffffffffffffffffffff1916817bffffffffffffffffffffffffffffffffffffffffffffffffffffffff191614612f30576040517f08c379a0000000000000000000000000000000000000000000000000000000008152600401612f27906140fe565b60405180910390fd5b505b505050505050565b612f598473ffffffffffffffffffffffffffffffffffffffff16613121565b15613119578373ffffffffffffffffffffffffffffffffffffffff1663bc197c8187878686866040518663ffffffff1660e01b8152600401612f9f959493929190613e80565b602060405180830381600087803b158015612fb957600080fd5b505af1925050508015612fea57506040513d601f19601f82011682018060405250810190612fe791906137d5565b60015b61309057612ff6614929565b806308c379a01415613053575061300b614e65565b806130165750613055565b806040517f08c379a000000000000000000000000000000000000000000000000000000000815260040161304a919061401d565b60405180910390fd5b505b6040517f08c379a0000000000000000000000000000000000000000000000000000000008152600401613087906140de565b60405180910390fd5b63bc197c8160e01b7bffffffffffffffffffffffffffffffffffffffffffffffffffffffff1916817bffffffffffffffffffffffffffffffffffffffffffffffffffffffff191614613117576040517f08c379a000000000000000000000000000000000000000000000000000000000815260040161310e906140fe565b60405180910390fd5b505b505050505050565b600080823b905060008111915050919050565b828054613140906147c1565b90600052602060002090601f01602090048101928261316257600085556131a9565b82601f1061317b57805160ff19168380011785556131a9565b828001600101855582156131a9579182015b828111156131a857825182559160200191906001019061318d565b5b5090506131b69190613293565b5090565b8280546131c6906147c1565b90600052602060002090601f0160209004810192826131e85760008555613236565b82601f106131f95780548555613236565b8280016001018555821561323657600052602060002091601f016020900482015b8281111561323557825482559160010191906001019061321a565b5b5090506132439190613293565b5090565b6040518060c00160405280606081526020016060815260200160008152602001600073ffffffffffffffffffffffffffffffffffffffff16815260200160008152602001600081525090565b5b808211156132ac576000816000905550600101613294565b5090565b60006132c36132be84614457565b614432565b905080838252602082019050828560208602820111156132e257600080fd5b60005b8581101561331257816132f88882613404565b8452602084019350602083019250506001810190506132e5565b5050509392505050565b600061332f61332a84614483565b614432565b9050808382526020820190508285602086028201111561334e57600080fd5b60005b8581101561337e57816133648882613500565b845260208401935060208301925050600181019050613351565b5050509392505050565b600061339b613396846144af565b614432565b9050828152602081018484840111156133b357600080fd5b6133be848285614755565b509392505050565b60006133d96133d4846144e0565b614432565b9050828152602081018484840111156133f157600080fd5b6133fc848285614755565b509392505050565b60008135905061341381614efb565b92915050565b600082601f83011261342a57600080fd5b813561343a8482602086016132b0565b91505092915050565b600082601f83011261345457600080fd5b813561346484826020860161331c565b91505092915050565b60008135905061347c81614f12565b92915050565b60008135905061349181614f29565b92915050565b6000815190506134a681614f29565b92915050565b600082601f8301126134bd57600080fd5b81356134cd848260208601613388565b91505092915050565b600082601f8301126134e757600080fd5b81356134f78482602086016133c6565b91505092915050565b60008135905061350f81614f40565b92915050565b60006020828403121561352757600080fd5b600061353584828501613404565b91505092915050565b6000806040838503121561355157600080fd5b600061355f85828601613404565b925050602061357085828601613404565b9150509250929050565b600080600080600060a0868803121561359257600080fd5b60006135a088828901613404565b95505060206135b188828901613404565b945050604086013567ffffffffffffffff8111156135ce57600080fd5b6135da88828901613443565b935050606086013567ffffffffffffffff8111156135f757600080fd5b61360388828901613443565b925050608086013567ffffffffffffffff81111561362057600080fd5b61362c888289016134ac565b9150509295509295909350565b600080600080600060a0868803121561365157600080fd5b600061365f88828901613404565b955050602061367088828901613404565b945050604061368188828901613500565b935050606061369288828901613500565b925050608086013567ffffffffffffffff8111156136af57600080fd5b6136bb888289016134ac565b9150509295509295909350565b600080604083850312156136db57600080fd5b60006136e985828601613404565b92505060206136fa8582860161346d565b9150509250929050565b6000806040838503121561371757600080fd5b600061372585828601613404565b925050602061373685828601613500565b9150509250929050565b6000806040838503121561375357600080fd5b600083013567ffffffffffffffff81111561376d57600080fd5b61377985828601613419565b925050602083013567ffffffffffffffff81111561379657600080fd5b6137a285828601613443565b9150509250929050565b6000602082840312156137be57600080fd5b60006137cc84828501613482565b91505092915050565b6000602082840312156137e757600080fd5b60006137f584828501613497565b91505092915050565b60006020828403121561381057600080fd5b600082013567ffffffffffffffff81111561382a57600080fd5b613836848285016134d6565b91505092915050565b6000806000806080858703121561385557600080fd5b600085013567ffffffffffffffff81111561386f57600080fd5b61387b878288016134d6565b945050602085013567ffffffffffffffff81111561389857600080fd5b6138a4878288016134d6565b93505060406138b587828801613500565b92505060606138c687828801613500565b91505092959194509250565b6000602082840312156138e457600080fd5b60006138f284828501613500565b91505092915050565b6000806040838503121561390e57600080fd5b600061391c85828601613500565b925050602061392d85828601613500565b9150509250929050565b60006139438383613967565b60208301905092915050565b600061395b8383613e47565b60208301905092915050565b613970816146e1565b82525050565b61397f816146e1565b82525050565b600061399082614531565b61399a8185614577565b93506139a583614511565b8060005b838110156139d65781516139bd8882613937565b97506139c88361455d565b9250506001810190506139a9565b5085935050505092915050565b60006139ee8261453c565b6139f88185614588565b9350613a0383614521565b8060005b83811015613a34578151613a1b888261394f565b9750613a268361456a565b925050600181019050613a07565b5085935050505092915050565b613a4a816146f3565b82525050565b6000613a5b82614547565b613a658185614599565b9350613a75818560208601614764565b613a7e8161494b565b840191505092915050565b6000613a9482614552565b613a9e81856145aa565b9350613aae818560208601614764565b613ab78161494b565b840191505092915050565b6000613acd82614552565b613ad781856145bb565b9350613ae7818560208601614764565b613af08161494b565b840191505092915050565b6000613b086034836145bb565b9150613b1382614969565b604082019050919050565b6000613b2b6028836145bb565b9150613b36826149b8565b604082019050919050565b6000613b4e6018836145bb565b9150613b5982614a07565b602082019050919050565b6000613b71602b836145bb565b9150613b7c82614a30565b604082019050919050565b6000613b946026836145bb565b9150613b9f82614a7f565b604082019050919050565b6000613bb7600a836145bb565b9150613bc282614ace565b602082019050919050565b6000613bda6029836145bb565b9150613be582614af7565b604082019050919050565b6000613bfd6025836145bb565b9150613c0882614b46565b604082019050919050565b6000613c206032836145bb565b9150613c2b82614b95565b604082019050919050565b6000613c436010836145bb565b9150613c4e82614be4565b602082019050919050565b6000613c66601d836145bb565b9150613c7182614c0d565b602082019050919050565b6000613c89602a836145bb565b9150613c9482614c36565b604082019050919050565b6000613cac6020836145bb565b9150613cb782614c85565b602082019050919050565b6000613ccf600f836145bb565b9150613cda82614cae565b602082019050919050565b6000613cf26011836145bb565b9150613cfd82614cd7565b602082019050919050565b6000613d15600c836145bb565b9150613d2082614d00565b602082019050919050565b6000613d386029836145bb565b9150613d4382614d29565b604082019050919050565b6000613d5b6029836145bb565b9150613d6682614d78565b604082019050919050565b6000613d7e6028836145bb565b9150613d8982614dc7565b604082019050919050565b6000613da16021836145bb565b9150613dac82614e16565b604082019050919050565b600060c0830160008301518482036000860152613dd48282613a89565b91505060208301518482036020860152613dee8282613a89565b9150506040830151613e036040860182613e47565b506060830151613e166060860182613967565b506080830151613e296080860182613e47565b5060a0830151613e3c60a0860182613e47565b508091505092915050565b613e508161474b565b82525050565b613e5f8161474b565b82525050565b6000602082019050613e7a6000830184613976565b92915050565b600060a082019050613e956000830188613976565b613ea26020830187613976565b8181036040830152613eb481866139e3565b90508181036060830152613ec881856139e3565b90508181036080830152613edc8184613a50565b90509695505050505050565b600060a082019050613efd6000830188613976565b613f0a6020830187613976565b613f176040830186613e56565b613f246060830185613e56565b8181036080830152613f368184613a50565b90509695505050505050565b6000608082019050613f576000830187613976565b613f646020830186613e56565b613f716040830185613e56565b613f7e6060830184613e56565b95945050505050565b60006020820190508181036000830152613fa18184613985565b905092915050565b60006020820190508181036000830152613fc381846139e3565b905092915050565b60006040820190508181036000830152613fe581856139e3565b90508181036020830152613ff981846139e3565b90509392505050565b60006020820190506140176000830184613a41565b92915050565b600060208201905081810360008301526140378184613ac2565b905092915050565b600060408201905081810360008301526140598185613ac2565b90506140686020830184613976565b9392505050565b600060c08201905081810360008301526140898189613ac2565b9050818103602083015261409d8188613ac2565b90506140ac6040830187613e56565b6140b96060830186613976565b6140c66080830185613e56565b6140d360a0830184613e56565b979650505050505050565b600060208201905081810360008301526140f781613afb565b9050919050565b6000602082019050818103600083015261411781613b1e565b9050919050565b6000602082019050818103600083015261413781613b41565b9050919050565b6000602082019050818103600083015261415781613b64565b9050919050565b6000602082019050818103600083015261417781613b87565b9050919050565b6000602082019050818103600083015261419781613baa565b9050919050565b600060208201905081810360008301526141b781613bcd565b9050919050565b600060208201905081810360008301526141d781613bf0565b9050919050565b600060208201905081810360008301526141f781613c13565b9050919050565b6000602082019050818103600083015261421781613c36565b9050919050565b6000602082019050818103600083015261423781613c59565b9050919050565b6000602082019050818103600083015261425781613c7c565b9050919050565b6000602082019050818103600083015261427781613c9f565b9050919050565b6000602082019050818103600083015261429781613cc2565b9050919050565b600060208201905081810360008301526142b781613ce5565b9050919050565b600060208201905081810360008301526142d781613d08565b9050919050565b600060208201905081810360008301526142f781613d2b565b9050919050565b6000602082019050818103600083015261431781613d4e565b9050919050565b6000602082019050818103600083015261433781613d71565b9050919050565b6000602082019050818103600083015261435781613d94565b9050919050565b600060208201905081810360008301526143788184613db7565b905092915050565b60006020820190506143956000830184613e56565b92915050565b60006040820190506143b06000830185613e56565b6143bd6020830184613976565b9392505050565b60006040820190506143d96000830185613e56565b6143e66020830184613e56565b9392505050565b60006080820190506144026000830187613e56565b61440f6020830186613e56565b61441c6040830185613e56565b6144296060830184613e56565b95945050505050565b600061443c61444d565b905061444882826147f3565b919050565b6000604051905090565b600067ffffffffffffffff821115614472576144716148fa565b5b602082029050602081019050919050565b600067ffffffffffffffff82111561449e5761449d6148fa565b5b602082029050602081019050919050565b600067ffffffffffffffff8211156144ca576144c96148fa565b5b6144d38261494b565b9050602081019050919050565b600067ffffffffffffffff8211156144fb576144fa6148fa565b5b6145048261494b565b9050602081019050919050565b6000819050602082019050919050565b6000819050602082019050919050565b600081519050919050565b600081519050919050565b600081519050919050565b600081519050919050565b6000602082019050919050565b6000602082019050919050565b600082825260208201905092915050565b600082825260208201905092915050565b600082825260208201905092915050565b600082825260208201905092915050565b600082825260208201905092915050565b60006145d78261474b565b91506145e28361474b565b9250827fffffffffffffffffffffffffffffffffffffffffffffffffffffffffffffffff038211156146175761461661486d565b5b828201905092915050565b600061462d8261474b565b91506146388361474b565b9250826146485761464761489c565b5b828204905092915050565b600061465e8261474b565b91506146698361474b565b9250817fffffffffffffffffffffffffffffffffffffffffffffffffffffffffffffffff04831182151516156146a2576146a161486d565b5b828202905092915050565b60006146b88261474b565b91506146c38361474b565b9250828210156146d6576146d561486d565b5b828203905092915050565b60006146ec8261472b565b9050919050565b60008115159050919050565b60007fffffffff0000000000000000000000000000000000000000000000000000000082169050919050565b600073ffffffffffffffffffffffffffffffffffffffff82169050919050565b6000819050919050565b82818337600083830152505050565b60005b83811015614782578082015181840152602081019050614767565b83811115614791576000848401525b50505050565b60006147a28261474b565b915060008214156147b6576147b561486d565b5b600182039050919050565b600060028204905060018216806147d957607f821691505b602082108114156147ed576147ec6148cb565b5b50919050565b6147fc8261494b565b810181811067ffffffffffffffff8211171561481b5761481a6148fa565b5b80604052505050565b600061482f8261474b565b91507fffffffffffffffffffffffffffffffffffffffffffffffffffffffffffffffff8214156148625761486161486d565b5b600182019050919050565b7f4e487b7100000000000000000000000000000000000000000000000000000000600052601160045260246000fd5b7f4e487b7100000000000000000000000000000000000000000000000000000000600052601260045260246000fd5b7f4e487b7100000000000000000000000000000000000000000000000000000000600052602260045260246000fd5b7f4e487b7100000000000000000000000000000000000000000000000000000000600052604160045260246000fd5b600060033d11156149485760046000803e61494560005161495c565b90505b90565b6000601f19601f8301169050919050565b60008160e01c9050919050565b7f455243313135353a207472616e7366657220746f206e6f6e204552433131353560008201527f526563656976657220696d706c656d656e746572000000000000000000000000602082015250565b7f455243313135353a204552433131353552656365697665722072656a6563746560008201527f6420746f6b656e73000000000000000000000000000000000000000000000000602082015250565b7f4e6f7420656e6f75676820746f6b656e20746f206d696e740000000000000000600082015250565b7f455243313135353a2062616c616e636520717565727920666f7220746865207a60008201527f65726f2061646472657373000000000000000000000000000000000000000000602082015250565b7f4f776e61626c653a206e6577206f776e657220697320746865207a65726f206160008201527f6464726573730000000000000000000000000000000000000000000000000000602082015250565b7f74786e206661696c656400000000000000000000000000000000000000000000600082015250565b7f455243313135353a2063616c6c6572206973206e6f74206f776e6572206e6f7260008201527f20617070726f7665640000000000000000000000000000000000000000000000602082015250565b7f455243313135353a207472616e7366657220746f20746865207a65726f20616460008201527f6472657373000000000000000000000000000000000000000000000000000000602082015250565b7f455243313135353a207472616e736665722063616c6c6572206973206e6f742060008201527f6f776e6572206e6f7220617070726f7665640000000000000000000000000000602082015250565b7f4e4f20737570706c792065786973747300000000000000000000000000000000600082015250565b7f6e6f7420656e6f75676820746f6b656e20696e2075722077616c6c6574000000600082015250565b7f455243313135353a20696e73756666696369656e742062616c616e636520666f60008201527f72207472616e7366657200000000000000000000000000000000000000000000602082015250565b7f4f776e61626c653a2063616c6c6572206973206e6f7420746865206f776e6572600082015250565b7f4e4f20746f6b656e206578697374730000000000000000000000000000000000600082015250565b7f6e6f7420656e6f75676820737570706c79000000000000000000000000000000600082015250565b7f62616c616e636520697320300000000000000000000000000000000000000000600082015250565b7f455243313135353a2073657474696e6720617070726f76616c2073746174757360008201527f20666f722073656c660000000000000000000000000000000000000000000000602082015250565b7f455243313135353a206163636f756e747320616e6420696473206c656e67746860008201527f206d69736d617463680000000000000000000000000000000000000000000000602082015250565b7f455243313135353a2069647320616e6420616d6f756e7473206c656e6774682060008201527f6d69736d61746368000000000000000000000000000000000000000000000000602082015250565b7f455243313135353a206d696e7420746f20746865207a65726f2061646472657360008201527f7300000000000000000000000000000000000000000000000000000000000000602082015250565b600060443d1015614e7557614ef8565b614e7d61444d565b60043d036004823e80513d602482011167ffffffffffffffff82111715614ea5575050614ef8565b808201805167ffffffffffffffff811115614ec35750505050614ef8565b80602083010160043d038501811115614ee0575050505050614ef8565b614eef826020018501866147f3565b82955050505050505b90565b614f04816146e1565b8114614f0f57600080fd5b50565b614f1b816146f3565b8114614f2657600080fd5b50565b614f32816146ff565b8114614f3d57600080fd5b50565b614f498161474b565b8114614f5457600080fd5b5056fea2646970667358221220bbb99620ed57bd64bca2439c70c09c138483534c9107f64012d0f1a702ae8aa764736f6c6343000804003368747470733a2f2f6170692e6d79736974652e636f6d2f746f6b656e732f7b69647d",
  "linkReferences": {},
  "deployedLinkReferences": {}
}