{
    "_format": "hh-sol-artifact-1",
    "contractName": "FractMarket",
    "sourceName": "contracts/FractMarket.sol",
    "abi": [
        {
            "inputs": [],
            "stateMutability": "nonpayable",
            "type": "constructor"
        },
        {
            "anonymous": false,
            "inputs": [
                {
                    "indexed": true,
                    "internalType": "address",
                    "name": "account",
                    "type": "address"
                },
                {
                    "indexed": true,
                    "internalType": "address",
                    "name": "operator",
                    "type": "address"
                },
                {
                    "indexed": false,
                    "internalType": "bool",
                    "name": "approved",
                    "type": "bool"
                }
            ],
            "name": "ApprovalForAll",
            "type": "event"
        },
        {
            "anonymous": false,
            "inputs": [
                {
                    "indexed": true,
                    "internalType": "address",
                    "name": "previousOwner",
                    "type": "address"
                },
                {
                    "indexed": true,
                    "internalType": "address",
                    "name": "newOwner",
                    "type": "address"
                }
            ],
            "name": "OwnershipTransferred",
            "type": "event"
        },
        {
            "anonymous": false,
            "inputs": [
                {
                    "indexed": true,
                    "internalType": "address",
                    "name": "operator",
                    "type": "address"
                },
                {
                    "indexed": true,
                    "internalType": "address",
                    "name": "from",
                    "type": "address"
                },
                {
                    "indexed": true,
                    "internalType": "address",
                    "name": "to",
                    "type": "address"
                },
                {
                    "indexed": false,
                    "internalType": "uint256[]",
                    "name": "ids",
                    "type": "uint256[]"
                },
                {
                    "indexed": false,
                    "internalType": "uint256[]",
                    "name": "values",
                    "type": "uint256[]"
                }
            ],
            "name": "TransferBatch",
            "type": "event"
        },
        {
            "anonymous": false,
            "inputs": [
                {
                    "indexed": true,
                    "internalType": "address",
                    "name": "operator",
                    "type": "address"
                },
                {
                    "indexed": true,
                    "internalType": "address",
                    "name": "from",
                    "type": "address"
                },
                {
                    "indexed": true,
                    "internalType": "address",
                    "name": "to",
                    "type": "address"
                },
                {
                    "indexed": false,
                    "internalType": "uint256",
                    "name": "id",
                    "type": "uint256"
                },
                {
                    "indexed": false,
                    "internalType": "uint256",
                    "name": "value",
                    "type": "uint256"
                }
            ],
            "name": "TransferSingle",
            "type": "event"
        },
        {
            "anonymous": false,
            "inputs": [
                {
                    "indexed": false,
                    "internalType": "string",
                    "name": "value",
                    "type": "string"
                },
                {
                    "indexed": true,
                    "internalType": "uint256",
                    "name": "id",
                    "type": "uint256"
                }
            ],
            "name": "URI",
            "type": "event"
        },
        {
            "inputs": [
                {
                    "internalType": "address",
                    "name": "account",
                    "type": "address"
                },
                {
                    "internalType": "uint256",
                    "name": "id",
                    "type": "uint256"
                }
            ],
            "name": "balanceOf",
            "outputs": [
                {
                    "internalType": "uint256",
                    "name": "",
                    "type": "uint256"
                }
            ],
            "stateMutability": "view",
            "type": "function"
        },
        {
            "inputs": [
                {
                    "internalType": "address[]",
                    "name": "accounts",
                    "type": "address[]"
                },
                {
                    "internalType": "uint256[]",
                    "name": "ids",
                    "type": "uint256[]"
                }
            ],
            "name": "balanceOfBatch",
            "outputs": [
                {
                    "internalType": "uint256[]",
                    "name": "",
                    "type": "uint256[]"
                }
            ],
            "stateMutability": "view",
            "type": "function"
        },
        {
            "inputs": [
                {
                    "internalType": "uint256",
                    "name": "_id",
                    "type": "uint256"
                }
            ],
            "name": "getSupplies",
            "outputs": [
                {
                    "components": [
                        {
                            "internalType": "string",
                            "name": "name",
                            "type": "string"
                        },
                        {
                            "internalType": "string",
                            "name": "data",
                            "type": "string"
                        },
                        {
                            "internalType": "uint256",
                            "name": "rate",
                            "type": "uint256"
                        },
                        {
                            "internalType": "address",
                            "name": "creator",
                            "type": "address"
                        },
                        {
                            "internalType": "uint256",
                            "name": "TokenFractID",
                            "type": "uint256"
                        },
                        {
                            "internalType": "uint256",
                            "name": "totalSupply",
                            "type": "uint256"
                        }
                    ],
                    "internalType": "struct FractMarket.TokenFract",
                    "name": "",
                    "type": "tuple"
                }
            ],
            "stateMutability": "view",
            "type": "function"
        },
        {
            "inputs": [],
            "name": "getTokenMinters",
            "outputs": [
                {
                    "internalType": "address[]",
                    "name": "",
                    "type": "address[]"
                }
            ],
            "stateMutability": "view",
            "type": "function"
        },
        {
            "inputs": [],
            "name": "getValue",
            "outputs": [
                {
                    "internalType": "uint256",
                    "name": "",
                    "type": "uint256"
                }
            ],
            "stateMutability": "view",
            "type": "function"
        },
        {
            "inputs": [
                {
                    "internalType": "address",
                    "name": "account",
                    "type": "address"
                },
                {
                    "internalType": "address",
                    "name": "operator",
                    "type": "address"
                }
            ],
            "name": "isApprovedForAll",
            "outputs": [
                {
                    "internalType": "bool",
                    "name": "",
                    "type": "bool"
                }
            ],
            "stateMutability": "view",
            "type": "function"
        },
        {
            "inputs": [
                {
                    "internalType": "uint256",
                    "name": "_id",
                    "type": "uint256"
                },
                {
                    "internalType": "uint256",
                    "name": "_amount",
                    "type": "uint256"
                }
            ],
            "name": "mint",
            "outputs": [],
            "stateMutability": "payable",
            "type": "function"
        },
        {
            "inputs": [
                {
                    "internalType": "string",
                    "name": "_name",
                    "type": "string"
                },
                {
                    "internalType": "string",
                    "name": "_data",
                    "type": "string"
                },
                {
                    "internalType": "uint256",
                    "name": "_rate",
                    "type": "uint256"
                },
                {
                    "internalType": "uint256",
                    "name": "_totalSupply",
                    "type": "uint256"
                }
            ],
            "name": "mintSupply",
            "outputs": [],
            "stateMutability": "nonpayable",
            "type": "function"
        },
        {
            "inputs": [],
            "name": "owner",
            "outputs": [
                {
                    "internalType": "address",
                    "name": "",
                    "type": "address"
                }
            ],
            "stateMutability": "view",
            "type": "function"
        },
        {
            "inputs": [],
            "name": "renounceOwnership",
            "outputs": [],
            "stateMutability": "nonpayable",
            "type": "function"
        },
        {
            "inputs": [
                {
                    "internalType": "address",
                    "name": "",
                    "type": "address"
                }
            ],
            "name": "resultMapping",
            "outputs": [
                {
                    "internalType": "string",
                    "name": "name",
                    "type": "string"
                },
                {
                    "internalType": "string",
                    "name": "data",
                    "type": "string"
                },
                {
                    "internalType": "uint256",
                    "name": "rate",
                    "type": "uint256"
                },
                {
                    "internalType": "address",
                    "name": "creator",
                    "type": "address"
                },
                {
                    "internalType": "uint256",
                    "name": "TokenFractID",
                    "type": "uint256"
                },
                {
                    "internalType": "uint256",
                    "name": "totalSupply",
                    "type": "uint256"
                }
            ],
            "stateMutability": "view",
            "type": "function"
        },
        {
            "inputs": [
                {
                    "internalType": "address",
                    "name": "from",
                    "type": "address"
                },
                {
                    "internalType": "address",
                    "name": "to",
                    "type": "address"
                },
                {
                    "internalType": "uint256[]",
                    "name": "ids",
                    "type": "uint256[]"
                },
                {
                    "internalType": "uint256[]",
                    "name": "amounts",
                    "type": "uint256[]"
                },
                {
                    "internalType": "bytes",
                    "name": "data",
                    "type": "bytes"
                }
            ],
            "name": "safeBatchTransferFrom",
            "outputs": [],
            "stateMutability": "nonpayable",
            "type": "function"
        },
        {
            "inputs": [
                {
                    "internalType": "address",
                    "name": "from",
                    "type": "address"
                },
                {
                    "internalType": "address",
                    "name": "to",
                    "type": "address"
                },
                {
                    "internalType": "uint256",
                    "name": "id",
                    "type": "uint256"
                },
                {
                    "internalType": "uint256",
                    "name": "amount",
                    "type": "uint256"
                },
                {
                    "internalType": "bytes",
                    "name": "data",
                    "type": "bytes"
                }
            ],
            "name": "safeTransferFrom",
            "outputs": [],
            "stateMutability": "nonpayable",
            "type": "function"
        },
        {
            "inputs": [
                {
                    "internalType": "address",
                    "name": "operator",
                    "type": "address"
                },
                {
                    "internalType": "bool",
                    "name": "approved",
                    "type": "bool"
                }
            ],
            "name": "setApprovalForAll",
            "outputs": [],
            "stateMutability": "nonpayable",
            "type": "function"
        },
        {
            "inputs": [
                {
                    "internalType": "string",
                    "name": "newuri",
                    "type": "string"
                }
            ],
            "name": "setURI",
            "outputs": [],
            "stateMutability": "nonpayable",
            "type": "function"
        },
        {
            "inputs": [
                {
                    "internalType": "bytes4",
                    "name": "interfaceId",
                    "type": "bytes4"
                }
            ],
            "name": "supportsInterface",
            "outputs": [
                {
                    "internalType": "bool",
                    "name": "",
                    "type": "bool"
                }
            ],
            "stateMutability": "view",
            "type": "function"
        },
        {
            "inputs": [
                {
                    "internalType": "address",
                    "name": "",
                    "type": "address"
                }
            ],
            "name": "tokenBuyers",
            "outputs": [
                {
                    "internalType": "address",
                    "name": "buyer",
                    "type": "address"
                },
                {
                    "internalType": "uint256",
                    "name": "id",
                    "type": "uint256"
                },
                {
                    "internalType": "uint256",
                    "name": "amount",
                    "type": "uint256"
                },
                {
                    "internalType": "uint256",
                    "name": "price",
                    "type": "uint256"
                }
            ],
            "stateMutability": "view",
            "type": "function"
        },
        {
            "inputs": [
                {
                    "internalType": "uint256",
                    "name": "",
                    "type": "uint256"
                }
            ],
            "name": "tokenBuyersDataArray",
            "outputs": [
                {
                    "internalType": "address",
                    "name": "buyer",
                    "type": "address"
                },
                {
                    "internalType": "uint256",
                    "name": "id",
                    "type": "uint256"
                },
                {
                    "internalType": "uint256",
                    "name": "amount",
                    "type": "uint256"
                },
                {
                    "internalType": "uint256",
                    "name": "price",
                    "type": "uint256"
                }
            ],
            "stateMutability": "view",
            "type": "function"
        },
        {
            "inputs": [
                {
                    "internalType": "uint256",
                    "name": "",
                    "type": "uint256"
                }
            ],
            "name": "tokenMinters",
            "outputs": [
                {
                    "internalType": "address",
                    "name": "",
                    "type": "address"
                }
            ],
            "stateMutability": "view",
            "type": "function"
        },
        {
            "inputs": [
                {
                    "internalType": "address",
                    "name": "newOwner",
                    "type": "address"
                }
            ],
            "name": "transferOwnership",
            "outputs": [],
            "stateMutability": "nonpayable",
            "type": "function"
        },
        {
            "inputs": [
                {
                    "internalType": "uint256",
                    "name": "",
                    "type": "uint256"
                }
            ],
            "name": "uri",
            "outputs": [
                {
                    "internalType": "string",
                    "name": "",
                    "type": "string"
                }
            ],
            "stateMutability": "view",
            "type": "function"
        },
        {
            "inputs": [],
            "name": "withdraw",
            "outputs": [],
            "stateMutability": "payable",
            "type": "function"
        }
    ],
    "bytecode": "0x60806040523480156200001157600080fd5b506040518060600160405280602281526020016200504b602291396200003d816200006c60201b60201c565b506200005e620000526200008860201b60201c565b6200009060201b60201c565b60006006819055506200026b565b80600290805190602001906200008492919062000156565b5050565b600033905090565b6000600360009054906101000a900473ffffffffffffffffffffffffffffffffffffffff16905081600360006101000a81548173ffffffffffffffffffffffffffffffffffffffff021916908373ffffffffffffffffffffffffffffffffffffffff1602179055508173ffffffffffffffffffffffffffffffffffffffff168173ffffffffffffffffffffffffffffffffffffffff167f8be0079c531659141344cd1fd0a4f28419497f9722a3daafe3b4186f6b6457e060405160405180910390a35050565b828054620001649062000206565b90600052602060002090601f016020900481019282620001885760008555620001d4565b82601f10620001a357805160ff1916838001178555620001d4565b82800160010185558215620001d4579182015b82811115620001d3578251825591602001919060010190620001b6565b5b509050620001e39190620001e7565b5090565b5b8082111562000202576000816000905550600101620001e8565b5090565b600060028204905060018216806200021f57607f821691505b602082108114156200023657620002356200023c565b5b50919050565b7f4e487b7100000000000000000000000000000000000000000000000000000000600052602260045260246000fd5b614dd0806200027b6000396000f3fe6080604052600436106101345760003560e01c80634e1273f4116100ab578063d01d7b1e1161006f578063d01d7b1e14610423578063d10a453514610463578063d5ffe2091461048e578063e985e9c5146104cb578063f242432a14610508578063f2fde38b1461053157610134565b80634e1273f414610352578063715018a61461038f578063760669fd146103a65780638da5cb5b146103cf578063a22cb465146103fa57610134565b806313fb319e116100fd57806313fb319e146102565780631b2ef1ca1461029657806320965255146102b25780632eb2c2d6146102dd5780633ccfd60b1461030657806344cf9b461461031057610134565b8062fdd58e1461013957806301ffc9a71461017657806302fe5305146101b35780630e89341c146101dc5780631096324314610219575b600080fd5b34801561014557600080fd5b50610160600480360381019061015b9190613547565b61055a565b60405161016d91906141c3565b60405180910390f35b34801561018257600080fd5b5061019d600480360381019061019891906135ef565b610623565b6040516101aa9190613e45565b60405180910390f35b3480156101bf57600080fd5b506101da60048036038101906101d59190613641565b610705565b005b3480156101e857600080fd5b5061020360048036038101906101fe9190613715565b610711565b6040516102109190613e60565b60405180910390f35b34801561022557600080fd5b50610240600480360381019061023b9190613715565b6107a5565b60405161024d9190613ca8565b60405180910390f35b34801561026257600080fd5b5061027d60048036038101906102789190613358565b6107e4565b60405161028d9493929190613d85565b60405180910390f35b6102b060048036038101906102ab919061373e565b610834565b005b3480156102be57600080fd5b506102c7610ffc565b6040516102d491906141c3565b60405180910390f35b3480156102e957600080fd5b5061030460048036038101906102ff91906133bd565b611006565b005b61030e6110a7565b005b34801561031c57600080fd5b5061033760048036038101906103329190613358565b6111b6565b60405161034996959493929190613eb2565b60405180910390f35b34801561035e57600080fd5b5061037960048036038101906103749190613583565b611322565b6040516103869190613dec565b60405180910390f35b34801561039b57600080fd5b506103a46114d3565b005b3480156103b257600080fd5b506103cd60048036038101906103c89190613682565b61155b565b005b3480156103db57600080fd5b506103e4611896565b6040516103f19190613ca8565b60405180910390f35b34801561040657600080fd5b50610421600480360381019061041c919061350b565b6118c0565b005b34801561042f57600080fd5b5061044a60048036038101906104459190613715565b611a41565b60405161045a9493929190613d85565b60405180910390f35b34801561046f57600080fd5b50610478611aa1565b6040516104859190613dca565b60405180910390f35b34801561049a57600080fd5b506104b560048036038101906104b09190613715565b611b2f565b6040516104c291906141a1565b60405180910390f35b3480156104d757600080fd5b506104f260048036038101906104ed9190613381565b611d35565b6040516104ff9190613e45565b60405180910390f35b34801561051457600080fd5b5061052f600480360381019061052a919061347c565b611dc9565b005b34801561053d57600080fd5b5061055860048036038101906105539190613358565b611e6a565b005b60008073ffffffffffffffffffffffffffffffffffffffff168373ffffffffffffffffffffffffffffffffffffffff1614156105cb576040517f08c379a00000000000000000000000000000000000000000000000000000000081526004016105c290613f81565b60405180910390fd5b60008083815260200190815260200160002060008473ffffffffffffffffffffffffffffffffffffffff1673ffffffffffffffffffffffffffffffffffffffff16815260200190815260200160002054905092915050565b60007fd9b67a26000000000000000000000000000000000000000000000000000000007bffffffffffffffffffffffffffffffffffffffffffffffffffffffff1916827bffffffffffffffffffffffffffffffffffffffffffffffffffffffff191614806106ee57507f0e89341c000000000000000000000000000000000000000000000000000000007bffffffffffffffffffffffffffffffffffffffffffffffffffffffff1916827bffffffffffffffffffffffffffffffffffffffffffffffffffffffff1916145b806106fe57506106fd82611f62565b5b9050919050565b61070e81611fcc565b50565b60606002805461072090614604565b80601f016020809104026020016040519081016040528092919081815260200182805461074c90614604565b80156107995780601f1061076e57610100808354040283529160200191610799565b820191906000526020600020905b81548152906001019060200180831161077c57829003601f168201915b50505050509050919050565b600881815481106107b557600080fd5b906000526020600020016000915054906101000a900473ffffffffffffffffffffffffffffffffffffffff1681565b60096020528060005260406000206000915090508060000160009054906101000a900473ffffffffffffffffffffffffffffffffffffffff16908060010154908060020154908060030154905084565b600060018361084391906144f0565b90506109108260048381548110610883577f4e487b7100000000000000000000000000000000000000000000000000000000600052603260045260246000fd5b906000526020600020906006020160020154670de0b6b3a764000080600486815481106108d9577f4e487b7100000000000000000000000000000000000000000000000000000000600052603260045260246000fd5b9060005260206000209060060201600201546108f59190614496565b866109009190614496565b61090a9190614465565b34611fe6565b610998670de0b6b3a7640000346109279190614496565b60048381548110610961577f4e487b7100000000000000000000000000000000000000000000000000000000600052603260045260246000fd5b906000526020600020906006020160030160009054906101000a900473ffffffffffffffffffffffffffffffffffffffff16612088565b66038d7ea4c680003410156109e2576040517f08c379a00000000000000000000000000000000000000000000000000000000081526004016109d990613f61565b60405180910390fd5b600480549050831115610a2a576040517f08c379a0000000000000000000000000000000000000000000000000000000008152600401610a2190614041565b60405180910390fd5b60008311610a6d576040517f08c379a0000000000000000000000000000000000000000000000000000000008152600401610a64906140c1565b60405180910390fd5b60048181548110610aa7577f4e487b7100000000000000000000000000000000000000000000000000000000600052603260045260246000fd5b9060005260206000209060060201600501548260058381548110610af4577f4e487b7100000000000000000000000000000000000000000000000000000000600052603260045260246000fd5b9060005260206000200154610b09919061440f565b1115610b4a576040517f08c379a0000000000000000000000000000000000000000000000000000000008152600401610b41906140e1565b60405180910390fd5b670de0b6b3a76400008060048381548110610b8e577f4e487b7100000000000000000000000000000000000000000000000000000000600052603260045260246000fd5b906000526020600020906006020160020154610baa9190614496565b83610bb59190614496565b610bbf9190614465565b670de0b6b3a764000034610bd39190614465565b1015610c14576040517f08c379a0000000000000000000000000000000000000000000000000000000008152600401610c0b90614061565b60405180910390fd5b610c553384846040518060400160405280600581526020017f68656c6c6f000000000000000000000000000000000000000000000000000000815250612124565b610c936040518060400160405280600781526020017f6d696e74656421000000000000000000000000000000000000000000000000008152506122ba565b610c9b611896565b73ffffffffffffffffffffffffffffffffffffffff166108fc66038d7ea4c680009081150290604051600060405180830381858888f19350505050158015610ce7573d6000803e3d6000fd5b50600060048281548110610d24577f4e487b7100000000000000000000000000000000000000000000000000000000600052603260045260246000fd5b906000526020600020906006020160030160009054906101000a900473ffffffffffffffffffffffffffffffffffffffff1673ffffffffffffffffffffffffffffffffffffffff166108fc349081150290604051600060405180830381858888f19350505050905080610dcc576040517f08c379a0000000000000000000000000000000000000000000000000000000008152600401610dc390613fc1565b60405180910390fd5b8260058381548110610e07577f4e487b7100000000000000000000000000000000000000000000000000000000600052603260045260246000fd5b906000526020600020016000828254610e20919061440f565b9250508190555060405180608001604052803373ffffffffffffffffffffffffffffffffffffffff16815260200185815260200184815260200134815250600960003373ffffffffffffffffffffffffffffffffffffffff1673ffffffffffffffffffffffffffffffffffffffff16815260200190815260200160002060008201518160000160006101000a81548173ffffffffffffffffffffffffffffffffffffffff021916908373ffffffffffffffffffffffffffffffffffffffff160217905550602082015181600101556040820151816002015560608201518160030155905050600a600960003373ffffffffffffffffffffffffffffffffffffffff1673ffffffffffffffffffffffffffffffffffffffff16815260200190815260200160002090806001815401808255809150506001900390600052602060002090600402016000909190919091506000820160009054906101000a900473ffffffffffffffffffffffffffffffffffffffff168160000160006101000a81548173ffffffffffffffffffffffffffffffffffffffff021916908373ffffffffffffffffffffffffffffffffffffffff160217905550600182015481600101556002820154816002015560038201548160030155505050505050565b6000600654905090565b61100e612353565b73ffffffffffffffffffffffffffffffffffffffff168573ffffffffffffffffffffffffffffffffffffffff16148061105457506110538561104e612353565b611d35565b5b611093576040517f08c379a000000000000000000000000000000000000000000000000000000000815260040161108a90614021565b60405180910390fd5b6110a0858585858561235b565b5050505050565b6110af612353565b73ffffffffffffffffffffffffffffffffffffffff166110cd611896565b73ffffffffffffffffffffffffffffffffffffffff1614611123576040517f08c379a000000000000000000000000000000000000000000000000000000000815260040161111a906140a1565b60405180910390fd5b60004711611166576040517f08c379a000000000000000000000000000000000000000000000000000000000815260040161115d90614101565b60405180910390fd5b61116e611896565b73ffffffffffffffffffffffffffffffffffffffff166108fc479081150290604051600060405180830381858888f193505050501580156111b3573d6000803e3d6000fd5b50565b60076020528060005260406000206000915090508060000180546111d990614604565b80601f016020809104026020016040519081016040528092919081815260200182805461120590614604565b80156112525780601f1061122757610100808354040283529160200191611252565b820191906000526020600020905b81548152906001019060200180831161123557829003601f168201915b50505050509080600101805461126790614604565b80601f016020809104026020016040519081016040528092919081815260200182805461129390614604565b80156112e05780601f106112b5576101008083540402835291602001916112e0565b820191906000526020600020905b8154815290600101906020018083116112c357829003601f168201915b5050505050908060020154908060030160009054906101000a900473ffffffffffffffffffffffffffffffffffffffff16908060040154908060050154905086565b60608151835114611368576040517f08c379a000000000000000000000000000000000000000000000000000000000815260040161135f90614141565b60405180910390fd5b6000835167ffffffffffffffff8111156113ab577f4e487b7100000000000000000000000000000000000000000000000000000000600052604160045260246000fd5b6040519080825280602002602001820160405280156113d95781602001602082028036833780820191505090505b50905060005b84518110156114c857611472858281518110611424577f4e487b7100000000000000000000000000000000000000000000000000000000600052603260045260246000fd5b6020026020010151858381518110611465577f4e487b7100000000000000000000000000000000000000000000000000000000600052603260045260246000fd5b602002602001015161055a565b8282815181106114ab577f4e487b7100000000000000000000000000000000000000000000000000000000600052603260045260246000fd5b602002602001018181525050806114c190614667565b90506113df565b508091505092915050565b6114db612353565b73ffffffffffffffffffffffffffffffffffffffff166114f9611896565b73ffffffffffffffffffffffffffffffffffffffff161461154f576040517f08c379a0000000000000000000000000000000000000000000000000000000008152600401611546906140a1565b60405180910390fd5b61155960006126bb565b565b6040518060c001604052808581526020018481526020018381526020013373ffffffffffffffffffffffffffffffffffffffff1681526020016006600081546115a390614667565b919050819055815260200182815250600760003373ffffffffffffffffffffffffffffffffffffffff1673ffffffffffffffffffffffffffffffffffffffff168152602001908152602001600020600082015181600001908051906020019061160d929190612f77565b50602082015181600101908051906020019061162a929190612f77565b506040820151816002015560608201518160030160006101000a81548173ffffffffffffffffffffffffffffffffffffffff021916908373ffffffffffffffffffffffffffffffffffffffff1602179055506080820151816004015560a082015181600501559050506004600760003373ffffffffffffffffffffffffffffffffffffffff1673ffffffffffffffffffffffffffffffffffffffff1681526020019081526020016000209080600181540180825580915050600190039060005260206000209060060201600090919091909150600082018160000190805461171190614604565b61171c929190612ffd565b50600182018160010190805461173190614604565b61173c929190612ffd565b50600282015481600201556003820160009054906101000a900473ffffffffffffffffffffffffffffffffffffffff168160030160006101000a81548173ffffffffffffffffffffffffffffffffffffffff021916908373ffffffffffffffffffffffffffffffffffffffff160217905550600482015481600401556005820154816005015550506008339080600181540180825580915050600190039060005260206000200160009091909190916101000a81548173ffffffffffffffffffffffffffffffffffffffff021916908373ffffffffffffffffffffffffffffffffffffffff1602179055506005600090806001815401808255809150506001900390600052602060002001600090919091909150556118906040518060400160405280600b81526020017f6d73672e73656e6465723a00000000000000000000000000000000000000000081525033612781565b50505050565b6000600360009054906101000a900473ffffffffffffffffffffffffffffffffffffffff16905090565b8173ffffffffffffffffffffffffffffffffffffffff166118df612353565b73ffffffffffffffffffffffffffffffffffffffff161415611936576040517f08c379a000000000000000000000000000000000000000000000000000000000815260040161192d90614121565b60405180910390fd5b8060016000611943612353565b73ffffffffffffffffffffffffffffffffffffffff1673ffffffffffffffffffffffffffffffffffffffff16815260200190815260200160002060008473ffffffffffffffffffffffffffffffffffffffff1673ffffffffffffffffffffffffffffffffffffffff16815260200190815260200160002060006101000a81548160ff0219169083151502179055508173ffffffffffffffffffffffffffffffffffffffff166119f0612353565b73ffffffffffffffffffffffffffffffffffffffff167f17307eab39ab6107e8899845ad3d59bd9653f200f220920489ca2b5937696c3183604051611a359190613e45565b60405180910390a35050565b600a8181548110611a5157600080fd5b90600052602060002090600402016000915090508060000160009054906101000a900473ffffffffffffffffffffffffffffffffffffffff16908060010154908060020154908060030154905084565b60606008805480602002602001604051908101604052809291908181526020018280548015611b2557602002820191906000526020600020905b8160009054906101000a900473ffffffffffffffffffffffffffffffffffffffff1673ffffffffffffffffffffffffffffffffffffffff1681526020019060010190808311611adb575b5050505050905090565b611b3761308a565b600482611b43906145da565b92508281548110611b7d577f4e487b7100000000000000000000000000000000000000000000000000000000600052603260045260246000fd5b90600052602060002090600602016040518060c0016040529081600082018054611ba690614604565b80601f0160208091040260200160405190810160405280929190818152602001828054611bd290614604565b8015611c1f5780601f10611bf457610100808354040283529160200191611c1f565b820191906000526020600020905b815481529060010190602001808311611c0257829003601f168201915b50505050508152602001600182018054611c3890614604565b80601f0160208091040260200160405190810160405280929190818152602001828054611c6490614604565b8015611cb15780601f10611c8657610100808354040283529160200191611cb1565b820191906000526020600020905b815481529060010190602001808311611c9457829003601f168201915b50505050508152602001600282015481526020016003820160009054906101000a900473ffffffffffffffffffffffffffffffffffffffff1673ffffffffffffffffffffffffffffffffffffffff1673ffffffffffffffffffffffffffffffffffffffff168152602001600482015481526020016005820154815250509050919050565b6000600160008473ffffffffffffffffffffffffffffffffffffffff1673ffffffffffffffffffffffffffffffffffffffff16815260200190815260200160002060008373ffffffffffffffffffffffffffffffffffffffff1673ffffffffffffffffffffffffffffffffffffffff16815260200190815260200160002060009054906101000a900460ff16905092915050565b611dd1612353565b73ffffffffffffffffffffffffffffffffffffffff168573ffffffffffffffffffffffffffffffffffffffff161480611e175750611e1685611e11612353565b611d35565b5b611e56576040517f08c379a0000000000000000000000000000000000000000000000000000000008152600401611e4d90613fe1565b60405180910390fd5b611e63858585858561281d565b5050505050565b611e72612353565b73ffffffffffffffffffffffffffffffffffffffff16611e90611896565b73ffffffffffffffffffffffffffffffffffffffff1614611ee6576040517f08c379a0000000000000000000000000000000000000000000000000000000008152600401611edd906140a1565b60405180910390fd5b600073ffffffffffffffffffffffffffffffffffffffff168173ffffffffffffffffffffffffffffffffffffffff161415611f56576040517f08c379a0000000000000000000000000000000000000000000000000000000008152600401611f4d90613fa1565b60405180910390fd5b611f5f816126bb565b50565b60007f01ffc9a7000000000000000000000000000000000000000000000000000000007bffffffffffffffffffffffffffffffffffffffffffffffffffffffff1916827bffffffffffffffffffffffffffffffffffffffffffffffffffffffff1916149050919050565b8060029080519060200190611fe2929190612f77565b5050565b612082848484846040516024016120009493929190614230565b6040516020818303038152906040527f5ca0ad3e000000000000000000000000000000000000000000000000000000007bffffffffffffffffffffffffffffffffffffffffffffffffffffffff19166020820180517bffffffffffffffffffffffffffffffffffffffffffffffffffffffff8381831617835250505050612a9f565b50505050565b612120828260405160240161209e9291906141de565b6040516020818303038152906040527f58eb860c000000000000000000000000000000000000000000000000000000007bffffffffffffffffffffffffffffffffffffffffffffffffffffffff19166020820180517bffffffffffffffffffffffffffffffffffffffffffffffffffffffff8381831617835250505050612a9f565b5050565b600073ffffffffffffffffffffffffffffffffffffffff168473ffffffffffffffffffffffffffffffffffffffff161415612194576040517f08c379a000000000000000000000000000000000000000000000000000000000815260040161218b90614181565b60405180910390fd5b600061219e612353565b90506121bf816000876121b088612ac8565b6121b988612ac8565b87612b8e565b8260008086815260200190815260200160002060008773ffffffffffffffffffffffffffffffffffffffff1673ffffffffffffffffffffffffffffffffffffffff168152602001908152602001600020600082825461221e919061440f565b925050819055508473ffffffffffffffffffffffffffffffffffffffff16600073ffffffffffffffffffffffffffffffffffffffff168273ffffffffffffffffffffffffffffffffffffffff167fc3d58168c5ae7397731d063d5bbf3d657854427343f4c083240f7aacaa2d0f62878760405161229c929190614207565b60405180910390a46122b381600087878787612b96565b5050505050565b612350816040516024016122ce9190613e60565b6040516020818303038152906040527f41304fac000000000000000000000000000000000000000000000000000000007bffffffffffffffffffffffffffffffffffffffffffffffffffffffff19166020820180517bffffffffffffffffffffffffffffffffffffffffffffffffffffffff8381831617835250505050612a9f565b50565b600033905090565b815183511461239f576040517f08c379a000000000000000000000000000000000000000000000000000000000815260040161239690614161565b60405180910390fd5b600073ffffffffffffffffffffffffffffffffffffffff168473ffffffffffffffffffffffffffffffffffffffff16141561240f576040517f08c379a000000000000000000000000000000000000000000000000000000000815260040161240690614001565b60405180910390fd5b6000612419612353565b9050612429818787878787612b8e565b60005b8451811015612626576000858281518110612470577f4e487b7100000000000000000000000000000000000000000000000000000000600052603260045260246000fd5b6020026020010151905060008583815181106124b5577f4e487b7100000000000000000000000000000000000000000000000000000000600052603260045260246000fd5b60200260200101519050600080600084815260200190815260200160002060008b73ffffffffffffffffffffffffffffffffffffffff1673ffffffffffffffffffffffffffffffffffffffff16815260200190815260200160002054905081811015612556576040517f08c379a000000000000000000000000000000000000000000000000000000000815260040161254d90614081565b60405180910390fd5b81810360008085815260200190815260200160002060008c73ffffffffffffffffffffffffffffffffffffffff1673ffffffffffffffffffffffffffffffffffffffff168152602001908152602001600020819055508160008085815260200190815260200160002060008b73ffffffffffffffffffffffffffffffffffffffff1673ffffffffffffffffffffffffffffffffffffffff168152602001908152602001600020600082825461260b919061440f565b925050819055505050508061261f90614667565b905061242c565b508473ffffffffffffffffffffffffffffffffffffffff168673ffffffffffffffffffffffffffffffffffffffff168273ffffffffffffffffffffffffffffffffffffffff167f4a39dc06d4c0dbc64b70af90fd698a233a518aa5d07e595d983b8c0526c8f7fb878760405161269d929190613e0e565b60405180910390a46126b3818787878787612d7d565b505050505050565b6000600360009054906101000a900473ffffffffffffffffffffffffffffffffffffffff16905081600360006101000a81548173ffffffffffffffffffffffffffffffffffffffff021916908373ffffffffffffffffffffffffffffffffffffffff1602179055508173ffffffffffffffffffffffffffffffffffffffff168173ffffffffffffffffffffffffffffffffffffffff167f8be0079c531659141344cd1fd0a4f28419497f9722a3daafe3b4186f6b6457e060405160405180910390a35050565b6128198282604051602401612797929190613e82565b6040516020818303038152906040527f319af333000000000000000000000000000000000000000000000000000000007bffffffffffffffffffffffffffffffffffffffffffffffffffffffff19166020820180517bffffffffffffffffffffffffffffffffffffffffffffffffffffffff8381831617835250505050612a9f565b5050565b600073ffffffffffffffffffffffffffffffffffffffff168473ffffffffffffffffffffffffffffffffffffffff16141561288d576040517f08c379a000000000000000000000000000000000000000000000000000000000815260040161288490614001565b60405180910390fd5b6000612897612353565b90506128b78187876128a888612ac8565b6128b188612ac8565b87612b8e565b600080600086815260200190815260200160002060008873ffffffffffffffffffffffffffffffffffffffff1673ffffffffffffffffffffffffffffffffffffffff1681526020019081526020016000205490508381101561294e576040517f08c379a000000000000000000000000000000000000000000000000000000000815260040161294590614081565b60405180910390fd5b83810360008087815260200190815260200160002060008973ffffffffffffffffffffffffffffffffffffffff1673ffffffffffffffffffffffffffffffffffffffff168152602001908152602001600020819055508360008087815260200190815260200160002060008873ffffffffffffffffffffffffffffffffffffffff1673ffffffffffffffffffffffffffffffffffffffff1681526020019081526020016000206000828254612a03919061440f565b925050819055508573ffffffffffffffffffffffffffffffffffffffff168773ffffffffffffffffffffffffffffffffffffffff168373ffffffffffffffffffffffffffffffffffffffff167fc3d58168c5ae7397731d063d5bbf3d657854427343f4c083240f7aacaa2d0f628888604051612a80929190614207565b60405180910390a4612a96828888888888612b96565b50505050505050565b60008151905060006a636f6e736f6c652e6c6f679050602083016000808483855afa5050505050565b60606000600167ffffffffffffffff811115612b0d577f4e487b7100000000000000000000000000000000000000000000000000000000600052604160045260246000fd5b604051908082528060200260200182016040528015612b3b5781602001602082028036833780820191505090505b5090508281600081518110612b79577f4e487b7100000000000000000000000000000000000000000000000000000000600052603260045260246000fd5b60200260200101818152505080915050919050565b505050505050565b612bb58473ffffffffffffffffffffffffffffffffffffffff16612f64565b15612d75578373ffffffffffffffffffffffffffffffffffffffff1663f23a6e6187878686866040518663ffffffff1660e01b8152600401612bfb959493929190613d2b565b602060405180830381600087803b158015612c1557600080fd5b505af1925050508015612c4657506040513d601f19601f82011682018060405250810190612c439190613618565b60015b612cec57612c5261476c565b806308c379a01415612caf5750612c67614ca8565b80612c725750612cb1565b806040517f08c379a0000000000000000000000000000000000000000000000000000000008152600401612ca69190613e60565b60405180910390fd5b505b6040517f08c379a0000000000000000000000000000000000000000000000000000000008152600401612ce390613f21565b60405180910390fd5b63f23a6e6160e01b7bffffffffffffffffffffffffffffffffffffffffffffffffffffffff1916817bffffffffffffffffffffffffffffffffffffffffffffffffffffffff191614612d73576040517f08c379a0000000000000000000000000000000000000000000000000000000008152600401612d6a90613f41565b60405180910390fd5b505b505050505050565b612d9c8473ffffffffffffffffffffffffffffffffffffffff16612f64565b15612f5c578373ffffffffffffffffffffffffffffffffffffffff1663bc197c8187878686866040518663ffffffff1660e01b8152600401612de2959493929190613cc3565b602060405180830381600087803b158015612dfc57600080fd5b505af1925050508015612e2d57506040513d601f19601f82011682018060405250810190612e2a9190613618565b60015b612ed357612e3961476c565b806308c379a01415612e965750612e4e614ca8565b80612e595750612e98565b806040517f08c379a0000000000000000000000000000000000000000000000000000000008152600401612e8d9190613e60565b60405180910390fd5b505b6040517f08c379a0000000000000000000000000000000000000000000000000000000008152600401612eca90613f21565b60405180910390fd5b63bc197c8160e01b7bffffffffffffffffffffffffffffffffffffffffffffffffffffffff1916817bffffffffffffffffffffffffffffffffffffffffffffffffffffffff191614612f5a576040517f08c379a0000000000000000000000000000000000000000000000000000000008152600401612f5190613f41565b60405180910390fd5b505b505050505050565b600080823b905060008111915050919050565b828054612f8390614604565b90600052602060002090601f016020900481019282612fa55760008555612fec565b82601f10612fbe57805160ff1916838001178555612fec565b82800160010185558215612fec579182015b82811115612feb578251825591602001919060010190612fd0565b5b509050612ff991906130d6565b5090565b82805461300990614604565b90600052602060002090601f01602090048101928261302b5760008555613079565b82601f1061303c5780548555613079565b8280016001018555821561307957600052602060002091601f016020900482015b8281111561307857825482559160010191906001019061305d565b5b50905061308691906130d6565b5090565b6040518060c00160405280606081526020016060815260200160008152602001600073ffffffffffffffffffffffffffffffffffffffff16815260200160008152602001600081525090565b5b808211156130ef5760008160009055506001016130d7565b5090565b60006131066131018461429a565b614275565b9050808382526020820190508285602086028201111561312557600080fd5b60005b85811015613155578161313b8882613247565b845260208401935060208301925050600181019050613128565b5050509392505050565b600061317261316d846142c6565b614275565b9050808382526020820190508285602086028201111561319157600080fd5b60005b858110156131c157816131a78882613343565b845260208401935060208301925050600181019050613194565b5050509392505050565b60006131de6131d9846142f2565b614275565b9050828152602081018484840111156131f657600080fd5b613201848285614598565b509392505050565b600061321c61321784614323565b614275565b90508281526020810184848401111561323457600080fd5b61323f848285614598565b509392505050565b60008135905061325681614d3e565b92915050565b600082601f83011261326d57600080fd5b813561327d8482602086016130f3565b91505092915050565b600082601f83011261329757600080fd5b81356132a784826020860161315f565b91505092915050565b6000813590506132bf81614d55565b92915050565b6000813590506132d481614d6c565b92915050565b6000815190506132e981614d6c565b92915050565b600082601f83011261330057600080fd5b81356133108482602086016131cb565b91505092915050565b600082601f83011261332a57600080fd5b813561333a848260208601613209565b91505092915050565b60008135905061335281614d83565b92915050565b60006020828403121561336a57600080fd5b600061337884828501613247565b91505092915050565b6000806040838503121561339457600080fd5b60006133a285828601613247565b92505060206133b385828601613247565b9150509250929050565b600080600080600060a086880312156133d557600080fd5b60006133e388828901613247565b95505060206133f488828901613247565b945050604086013567ffffffffffffffff81111561341157600080fd5b61341d88828901613286565b935050606086013567ffffffffffffffff81111561343a57600080fd5b61344688828901613286565b925050608086013567ffffffffffffffff81111561346357600080fd5b61346f888289016132ef565b9150509295509295909350565b600080600080600060a0868803121561349457600080fd5b60006134a288828901613247565b95505060206134b388828901613247565b94505060406134c488828901613343565b93505060606134d588828901613343565b925050608086013567ffffffffffffffff8111156134f257600080fd5b6134fe888289016132ef565b9150509295509295909350565b6000806040838503121561351e57600080fd5b600061352c85828601613247565b925050602061353d858286016132b0565b9150509250929050565b6000806040838503121561355a57600080fd5b600061356885828601613247565b925050602061357985828601613343565b9150509250929050565b6000806040838503121561359657600080fd5b600083013567ffffffffffffffff8111156135b057600080fd5b6135bc8582860161325c565b925050602083013567ffffffffffffffff8111156135d957600080fd5b6135e585828601613286565b9150509250929050565b60006020828403121561360157600080fd5b600061360f848285016132c5565b91505092915050565b60006020828403121561362a57600080fd5b6000613638848285016132da565b91505092915050565b60006020828403121561365357600080fd5b600082013567ffffffffffffffff81111561366d57600080fd5b61367984828501613319565b91505092915050565b6000806000806080858703121561369857600080fd5b600085013567ffffffffffffffff8111156136b257600080fd5b6136be87828801613319565b945050602085013567ffffffffffffffff8111156136db57600080fd5b6136e787828801613319565b93505060406136f887828801613343565b925050606061370987828801613343565b91505092959194509250565b60006020828403121561372757600080fd5b600061373584828501613343565b91505092915050565b6000806040838503121561375157600080fd5b600061375f85828601613343565b925050602061377085828601613343565b9150509250929050565b600061378683836137aa565b60208301905092915050565b600061379e8383613c8a565b60208301905092915050565b6137b381614524565b82525050565b6137c281614524565b82525050565b60006137d382614374565b6137dd81856143ba565b93506137e883614354565b8060005b83811015613819578151613800888261377a565b975061380b836143a0565b9250506001810190506137ec565b5085935050505092915050565b60006138318261437f565b61383b81856143cb565b935061384683614364565b8060005b8381101561387757815161385e8882613792565b9750613869836143ad565b92505060018101905061384a565b5085935050505092915050565b61388d81614536565b82525050565b600061389e8261438a565b6138a881856143dc565b93506138b88185602086016145a7565b6138c18161478e565b840191505092915050565b60006138d782614395565b6138e181856143ed565b93506138f18185602086016145a7565b6138fa8161478e565b840191505092915050565b600061391082614395565b61391a81856143fe565b935061392a8185602086016145a7565b6139338161478e565b840191505092915050565b600061394b6034836143fe565b9150613956826147ac565b604082019050919050565b600061396e6028836143fe565b9150613979826147fb565b604082019050919050565b60006139916018836143fe565b915061399c8261484a565b602082019050919050565b60006139b4602b836143fe565b91506139bf82614873565b604082019050919050565b60006139d76026836143fe565b91506139e2826148c2565b604082019050919050565b60006139fa600a836143fe565b9150613a0582614911565b602082019050919050565b6000613a1d6029836143fe565b9150613a288261493a565b604082019050919050565b6000613a406025836143fe565b9150613a4b82614989565b604082019050919050565b6000613a636032836143fe565b9150613a6e826149d8565b604082019050919050565b6000613a866010836143fe565b9150613a9182614a27565b602082019050919050565b6000613aa9601d836143fe565b9150613ab482614a50565b602082019050919050565b6000613acc602a836143fe565b9150613ad782614a79565b604082019050919050565b6000613aef6020836143fe565b9150613afa82614ac8565b602082019050919050565b6000613b12600f836143fe565b9150613b1d82614af1565b602082019050919050565b6000613b356011836143fe565b9150613b4082614b1a565b602082019050919050565b6000613b58600c836143fe565b9150613b6382614b43565b602082019050919050565b6000613b7b6029836143fe565b9150613b8682614b6c565b604082019050919050565b6000613b9e6029836143fe565b9150613ba982614bbb565b604082019050919050565b6000613bc16028836143fe565b9150613bcc82614c0a565b604082019050919050565b6000613be46021836143fe565b9150613bef82614c59565b604082019050919050565b600060c0830160008301518482036000860152613c1782826138cc565b91505060208301518482036020860152613c3182826138cc565b9150506040830151613c466040860182613c8a565b506060830151613c5960608601826137aa565b506080830151613c6c6080860182613c8a565b5060a0830151613c7f60a0860182613c8a565b508091505092915050565b613c938161458e565b82525050565b613ca28161458e565b82525050565b6000602082019050613cbd60008301846137b9565b92915050565b600060a082019050613cd860008301886137b9565b613ce560208301876137b9565b8181036040830152613cf78186613826565b90508181036060830152613d0b8185613826565b90508181036080830152613d1f8184613893565b90509695505050505050565b600060a082019050613d4060008301886137b9565b613d4d60208301876137b9565b613d5a6040830186613c99565b613d676060830185613c99565b8181036080830152613d798184613893565b90509695505050505050565b6000608082019050613d9a60008301876137b9565b613da76020830186613c99565b613db46040830185613c99565b613dc16060830184613c99565b95945050505050565b60006020820190508181036000830152613de481846137c8565b905092915050565b60006020820190508181036000830152613e068184613826565b905092915050565b60006040820190508181036000830152613e288185613826565b90508181036020830152613e3c8184613826565b90509392505050565b6000602082019050613e5a6000830184613884565b92915050565b60006020820190508181036000830152613e7a8184613905565b905092915050565b60006040820190508181036000830152613e9c8185613905565b9050613eab60208301846137b9565b9392505050565b600060c0820190508181036000830152613ecc8189613905565b90508181036020830152613ee08188613905565b9050613eef6040830187613c99565b613efc60608301866137b9565b613f096080830185613c99565b613f1660a0830184613c99565b979650505050505050565b60006020820190508181036000830152613f3a8161393e565b9050919050565b60006020820190508181036000830152613f5a81613961565b9050919050565b60006020820190508181036000830152613f7a81613984565b9050919050565b60006020820190508181036000830152613f9a816139a7565b9050919050565b60006020820190508181036000830152613fba816139ca565b9050919050565b60006020820190508181036000830152613fda816139ed565b9050919050565b60006020820190508181036000830152613ffa81613a10565b9050919050565b6000602082019050818103600083015261401a81613a33565b9050919050565b6000602082019050818103600083015261403a81613a56565b9050919050565b6000602082019050818103600083015261405a81613a79565b9050919050565b6000602082019050818103600083015261407a81613a9c565b9050919050565b6000602082019050818103600083015261409a81613abf565b9050919050565b600060208201905081810360008301526140ba81613ae2565b9050919050565b600060208201905081810360008301526140da81613b05565b9050919050565b600060208201905081810360008301526140fa81613b28565b9050919050565b6000602082019050818103600083015261411a81613b4b565b9050919050565b6000602082019050818103600083015261413a81613b6e565b9050919050565b6000602082019050818103600083015261415a81613b91565b9050919050565b6000602082019050818103600083015261417a81613bb4565b9050919050565b6000602082019050818103600083015261419a81613bd7565b9050919050565b600060208201905081810360008301526141bb8184613bfa565b905092915050565b60006020820190506141d86000830184613c99565b92915050565b60006040820190506141f36000830185613c99565b61420060208301846137b9565b9392505050565b600060408201905061421c6000830185613c99565b6142296020830184613c99565b9392505050565b60006080820190506142456000830187613c99565b6142526020830186613c99565b61425f6040830185613c99565b61426c6060830184613c99565b95945050505050565b600061427f614290565b905061428b8282614636565b919050565b6000604051905090565b600067ffffffffffffffff8211156142b5576142b461473d565b5b602082029050602081019050919050565b600067ffffffffffffffff8211156142e1576142e061473d565b5b602082029050602081019050919050565b600067ffffffffffffffff82111561430d5761430c61473d565b5b6143168261478e565b9050602081019050919050565b600067ffffffffffffffff82111561433e5761433d61473d565b5b6143478261478e565b9050602081019050919050565b6000819050602082019050919050565b6000819050602082019050919050565b600081519050919050565b600081519050919050565b600081519050919050565b600081519050919050565b6000602082019050919050565b6000602082019050919050565b600082825260208201905092915050565b600082825260208201905092915050565b600082825260208201905092915050565b600082825260208201905092915050565b600082825260208201905092915050565b600061441a8261458e565b91506144258361458e565b9250827fffffffffffffffffffffffffffffffffffffffffffffffffffffffffffffffff0382111561445a576144596146b0565b5b828201905092915050565b60006144708261458e565b915061447b8361458e565b92508261448b5761448a6146df565b5b828204905092915050565b60006144a18261458e565b91506144ac8361458e565b9250817fffffffffffffffffffffffffffffffffffffffffffffffffffffffffffffffff04831182151516156144e5576144e46146b0565b5b828202905092915050565b60006144fb8261458e565b91506145068361458e565b925082821015614519576145186146b0565b5b828203905092915050565b600061452f8261456e565b9050919050565b60008115159050919050565b60007fffffffff0000000000000000000000000000000000000000000000000000000082169050919050565b600073ffffffffffffffffffffffffffffffffffffffff82169050919050565b6000819050919050565b82818337600083830152505050565b60005b838110156145c55780820151818401526020810190506145aa565b838111156145d4576000848401525b50505050565b60006145e58261458e565b915060008214156145f9576145f86146b0565b5b600182039050919050565b6000600282049050600182168061461c57607f821691505b602082108114156146305761462f61470e565b5b50919050565b61463f8261478e565b810181811067ffffffffffffffff8211171561465e5761465d61473d565b5b80604052505050565b60006146728261458e565b91507fffffffffffffffffffffffffffffffffffffffffffffffffffffffffffffffff8214156146a5576146a46146b0565b5b600182019050919050565b7f4e487b7100000000000000000000000000000000000000000000000000000000600052601160045260246000fd5b7f4e487b7100000000000000000000000000000000000000000000000000000000600052601260045260246000fd5b7f4e487b7100000000000000000000000000000000000000000000000000000000600052602260045260246000fd5b7f4e487b7100000000000000000000000000000000000000000000000000000000600052604160045260246000fd5b600060033d111561478b5760046000803e61478860005161479f565b90505b90565b6000601f19601f8301169050919050565b60008160e01c9050919050565b7f455243313135353a207472616e7366657220746f206e6f6e204552433131353560008201527f526563656976657220696d706c656d656e746572000000000000000000000000602082015250565b7f455243313135353a204552433131353552656365697665722072656a6563746560008201527f6420746f6b656e73000000000000000000000000000000000000000000000000602082015250565b7f4e6f7420656e6f75676820746f6b656e20746f206d696e740000000000000000600082015250565b7f455243313135353a2062616c616e636520717565727920666f7220746865207a60008201527f65726f2061646472657373000000000000000000000000000000000000000000602082015250565b7f4f776e61626c653a206e6577206f776e657220697320746865207a65726f206160008201527f6464726573730000000000000000000000000000000000000000000000000000602082015250565b7f74786e206661696c656400000000000000000000000000000000000000000000600082015250565b7f455243313135353a2063616c6c6572206973206e6f74206f776e6572206e6f7260008201527f20617070726f7665640000000000000000000000000000000000000000000000602082015250565b7f455243313135353a207472616e7366657220746f20746865207a65726f20616460008201527f6472657373000000000000000000000000000000000000000000000000000000602082015250565b7f455243313135353a207472616e736665722063616c6c6572206973206e6f742060008201527f6f776e6572206e6f7220617070726f7665640000000000000000000000000000602082015250565b7f4e4f20737570706c792065786973747300000000000000000000000000000000600082015250565b7f6e6f7420656e6f75676820746f6b656e20696e2075722077616c6c6574000000600082015250565b7f455243313135353a20696e73756666696369656e742062616c616e636520666f60008201527f72207472616e7366657200000000000000000000000000000000000000000000602082015250565b7f4f776e61626c653a2063616c6c6572206973206e6f7420746865206f776e6572600082015250565b7f4e4f20746f6b656e206578697374730000000000000000000000000000000000600082015250565b7f6e6f7420656e6f75676820737570706c79000000000000000000000000000000600082015250565b7f62616c616e636520697320300000000000000000000000000000000000000000600082015250565b7f455243313135353a2073657474696e6720617070726f76616c2073746174757360008201527f20666f722073656c660000000000000000000000000000000000000000000000602082015250565b7f455243313135353a206163636f756e747320616e6420696473206c656e67746860008201527f206d69736d617463680000000000000000000000000000000000000000000000602082015250565b7f455243313135353a2069647320616e6420616d6f756e7473206c656e6774682060008201527f6d69736d61746368000000000000000000000000000000000000000000000000602082015250565b7f455243313135353a206d696e7420746f20746865207a65726f2061646472657360008201527f7300000000000000000000000000000000000000000000000000000000000000602082015250565b600060443d1015614cb857614d3b565b614cc0614290565b60043d036004823e80513d602482011167ffffffffffffffff82111715614ce8575050614d3b565b808201805167ffffffffffffffff811115614d065750505050614d3b565b80602083010160043d038501811115614d23575050505050614d3b565b614d3282602001850186614636565b82955050505050505b90565b614d4781614524565b8114614d5257600080fd5b50565b614d5e81614536565b8114614d6957600080fd5b50565b614d7581614542565b8114614d8057600080fd5b50565b614d8c8161458e565b8114614d9757600080fd5b5056fea26469706673582212205f040a4c36262243ea67bd57e0a27fb4ee3c2576d885483d257991c01e274a1564736f6c6343000804003368747470733a2f2f6170692e6d79736974652e636f6d2f746f6b656e732f7b69647d",
    "linkReferences": {},
    "deployedLinkReferences": {}
}